:100000000C9471000C9439060C94D3050C943906A9
:100010000C9439060C9439060C9439060C94390664
:100020000C9439060C9439060C9439060C94390654
:100030000C9439060C9439060C9439060C94390644
:100040000C9439060C9489040C94B2040C94BE05EB
:100050000C9439060C9439060C9439060C94390624
:100060000C9439060C9439060C9439060C94390614
:100070000C9439060C9439060C9439060C94390604
:100080000C9439060C9439060C9439060C943906F4
:100090000C9439060C9439060C9439060C943906E4
:1000A00028242826000C8428262828000C862828A6
:1000B0002829802829282A80282A282B80281428C3
:1000C0001C80282B282C80282C282D80282D282E99
:1000D00080281C28248028062814000C7628002854
:1000E000068011241FBECFEFCDBFDFE3DEBFE0EA05
:1000F000F0E040E017C0B591A591359125910591AB
:1001000007FD0CC095918591EF01F92FE82F05901F
:100110000D92A217B307D9F7FE0104C01D92A217D2
:10012000B307E1F7E23EF40731F70E9413030C94A2
:060130009900F894FFCFD6
:100136006F6C6441203D202569096F6C6442203D47
:100146002025690A6E657741203D202569096E657F
:100156007742203D2025690A005269676874004C81
:040166006566740056
:10016A00ABE0B0E0EBEBF0E00C9461056C017B01D5
:10017A008A01FC0116821782838181FFCCC1CE01DC
:10018A0001963C01F6019381F70193FD859193FF56
:10019A0081917F01882309F4BAC1853239F493FD2C
:1001AA00859193FF81917F01853229F4B60190E010
:1001BA000E94E603E7CF912C212C312CFFE1F315A5
:1001CA00D8F08B3279F038F4803279F08332A1F4A6
:1001DA00232D20611DC08D3261F0803369F4232DF7
:1001EA00216016C0832D8260382EE32DE4603E2EF6
:1001FA002AC0F32DF8601DC037FC2DC020ED280F52
:10020A002A3040F08E32B9F436FC81C1232D2064A5
:10021A00322E19C036FE06C08AE0989E200D11249F
:10022A00922E11C0EAE02E9E200D1124222EF32DCB
:10023A00F0623F2E08C08C3621F4832D8068382E58
:10024A0002C0883641F4F70193FD859193FF8191AD
:10025A007F018111B3CF982F9F7D9554933028F455
:10026A000C5F1F4F9FE399830DC0833631F08337AC
:10027A0071F0833509F059C021C0F8018081898362
:10028A000E5F1F4F88248394912C530113C02801B9
:10029A00F2E04F0E511CF801A080B18036FE03C077
:1002AA00692D70E002C06FEF7FEFC5010E9415064D
:1002BA004C018201F32DFF773F2E16C0280122E060
:1002CA00420E511CF801A080B18036FE03C0692D90
:1002DA0070E002C06FEF7FEFC5010E940A064C0171
:1002EA00F32DF0683F2E820133FC1BC0822D90E073
:1002FA0088169906B0F4B60180E290E00E94E603FF
:10030A002A94F4CFF50137FC859137FE81915F017C
:10031A00B60190E00E94E60321102A9421E0821A95
:10032A0091088114910471F7E8C0843611F0893676
:10033A0041F5F80137FE07C060817181828193819E
:10034A000C5F1F4F08C060817181072E000C880B5B
:10035A00990B0E5F1F4FF32DFF763F2E97FF09C0B3
:10036A0090958095709561957F4F8F4F9F4FF0685C
:10037A003F2E2AE030E0A3010E948803882E8618C7
:10038A0045C0853731F4232D2F7EB22E2AE030E086
:10039A0025C0932D997FB92E8F36C1F018F4883570
:1003AA0079F0B5C0803719F0883721F0B0C0E92F4D
:1003BA00E061BE2EB4FE0DC0FB2DF460BF2E09C055
:1003CA0034FE0AC0292F2660B22E06C028E030E08B
:1003DA0005C020E130E002C020E132E0F801B7FEBA
:1003EA0007C060817181828193810C5F1F4F06C0B3
:1003FA006081718180E090E00E5F1F4FA3010E942F
:10040A008803882E8618FB2DFF773F2E36FE0DC0F7
:10041A00232D2E7FA22E891458F434FE0BC032FCF1
:10042A0009C0832D8E7EA82E05C0B82CA32C03C02C
:10043A00B82C01C0B92CA4FE0FC0FE01E80DF11DB5
:10044A008081803321F49A2D997EA92E09C0A2FEBB
:10045A0006C0B394B39404C08A2D867809F0B39485
:10046A00A3FC11C0A0FE06C0B21488F4280C922C7A
:10047A009B180EC0B21460F4B60180E290E00E94AC
:10048A00E603B394F7CFB21418F42B1802C0982CD1
:10049A00212CA4FE10C0B60180E390E00E94E6037E
:1004AA00A2FE17C0A1FC03C088E790E002C088E55D
:1004BA0090E0B6010CC08A2D867859F0A1FE02C0E0
:1004CA008BE201C080E2A7FC8DE2B60190E00E94B7
:1004DA00E603891438F4B60180E390E00E94E6034B
:1004EA009A94F7CF8A94F301E80DF11D8081B60141
:1004FA0090E00E94E6038110F5CF222009F442CE53
:10050A00B60180E290E00E94E6032A94F6CFF60153
:10051A008681978102C08FEF9FEF2B96E2E10C94C0
:02052A007A0550
:10052C000F931F93CF93DF930E94220440E054E07B
:10053C0081E0FA01808320E234E0F901108280E44A
:10054C0094E0FC011082C0E6D4E06FEF6883A0E871
:10055C00B4E01C9200EA14E060E2F8016083FA0156
:10056C001482F9011482FC0114821C8214961C92D0
:10057C00149760E1F8016483FA01108A118A128AD7
:10058C00138A148A158A168A178AF901108A118A15
:10059C00128A138A148A158A168A178AFC01108A01
:1005AC00118A128A138A148A158A168A178A188A4B
:1005BC00198A1A8A1B8A1C8A1D8A1E8A1F8A5096BF
:1005CC001C92509751961C92519752961C9252978E
:1005DC0053961C92539754961C92549755961C9272
:1005EC00559756961C92569757961C92F801108A5E
:1005FC00118A128A138A88E0848B158A168A178AC4
:10060C00E0EEF5E0118210821482158213821282C0
:0A061C00DF91CF911F910F91089517
:100626000E94E20586B382FBCC24C0F8D12C86B3A7
:1006360083FB882780F9C82F80E0D82F6894882408
:1006460081F8912C0F2EF7EA6F2EF4E07F2EF02D15
:100656006894332435F80F2EF6E34F2EF1E45F2E1F
:10066600F02DAA24A394B12C86B382FB002700F9AF
:1006760010E086B383FBEE24E0F8F12CC016D10619
:1006860019F4CE15DF0549F1F3013082FF92EF929E
:100696001F930F93DF93CF93DF92CF925F924F9288
:1006A6000E94A805EDB7FEB73A96EDBFFEBFCA9405
:1006B600CD28B1F401151105B1F4CC0FDD1F21973A
:1006C600C130D10529F48FE591E40E9459040DC08B
:1006D60085E691E40E94590408C0C0E0D0E005C058
:1006E600C0E0D0E002C0C0E0D0E08C0E9D1E87E0E6
:1006F60088229924C501082C02C0880F991F0A94E4
:0A070600E2F78DB96801E701AFCFFB
:10071000FA01AA27283051F1203181F1E8946F9332
:100720006E7F6E5F7F4F8F4F9F4FAF4FB1E03ED0D8
:10073000B4E03CD0670F781F891F9A1FA11D680F76
:10074000791F8A1F911DA11D6A0F711D811D911DA9
:10075000A11D20D009F468943F912AE0269F11241E
:100760003019305D3193DEF6CF010895462F477082
:10077000405D4193B3E00FD0C9F7F6CF462F4F70DD
:10078000405D4A3318F0495D31FD4052419302D03B
:10079000A9F7EACFB4E0A6959795879577956795E1
:1007A000BA95C9F700976105710508959B01AC01E1
:1007B0000A2E06945795479537952795BA95C9F708
:0C07C000620F731F841F951FA01D089579
:1007CC000F931F93CF93DF93FB01238121FD03C074
:1007DC008FEF9FEF2CC022FF16C0468157812481DA
:1007EC0035814217530744F4A081B1819D012F5FDD
:1007FC003F4F208331838C93268137812F5F3F4F6E
:10080C002683378314C08B01EC01FB010084F18536
:10081C00E02D0995892BE1F6D80116968D919C91C6
:10082C001797019616968D939C931797CE01DF918F
:08083C00CF911F910F91089567
:10084400E0E9F4E0808188608193E83984E0F80786
:10085400C9F7E0EBF4E0808188608193E83B84E0B1
:10086400F807C9F7E0E1F4E0808188608193E8311A
:1008740084E0F807C9F7E0E3F4E0808188608193BD
:10088400E83384E0F807C9F7E0E5F4E080818860A4
:100894008193E83584E0F807C9F7E0E7F4E0808164
:0E08A40088608193E83784E0F807C9F708956B
:1008B2000F931F93CF93DF93E0910228F0910328C7
:1008C200238121FF1BC08C01D0E0C0E0F80181919F
:1008D2008F016091022870910328DB011896ED9137
:1008E200FC911997882331F00995892B79F3DFEF71
:1008F200CFEFECCF8AE00995892B19F08FEF9FEFAC
:1009020002C08D2F9C2FDF91CF911F910F910895DF
:100912001F920F920FB60F9211242F933F934F9372
:100922005F936F937F938F939F93AF93BF93EF9355
:10093200FF93E0912628F0912728309709F0099536
:10094200FF91EF91BF91AF919F918F917F916F91A5
:100952005F914F913F912F910F900FBE0F901F907B
:020962001895E6
:100964001F920F920FB60F9211242F933F934F9320
:100974005F936F937F938F939F93AF93BF93EF9303
:10098400FF93E0912428F0912528309709F00995E8
:10099400FF91EF91BF91AF919F918F917F916F9153
:1009A4005F914F913F912F910F900FBE0F901F9029
:0209B400189594
:1009B60040E068ED88E790E00E94350640E068ED8B
:1009C6008CE790E00E94350640E068ED80E790E015
:1009D6000E94350641E168ED81E690E00E94350609
:1009E60040E068ED80E690E00E94350640E068ED64
:0C09F60082E690E00E94350680E0089543
:100A0200E0E0F8E08DE695E08087918780E48583D9
:100A1200868383E087831386148616861586109252
:100A22002C2810922D2810922B28109229281092EF
:100A32002A281092282886E098E280930228909330
:040A420003280895E8
:100A460080912828882389F0E0912928EF5FE770B4
:100A5600E0932928F0E0EC5EF74D80818093020850
:100A660080912828815080932828809128288111F8
:0E0A760005C0E0E0F8E085818F7D858308955E
:100A840020912A282F5F2770909128289830E1F32D
:100A9400E22FF0E0EC5EF74D808320932A280FB616
:100AA400F8940F92809128288F5F809328280F90C4
:0E0AB4000FBEE0E0F8E0858180628583089542
:100AC2002F923F924F925F926F927F928F929F925C
:100AD200AF92BF92CF92DF92EF92FF920F931F934A
:100AE200CF93DF93CDB7DEB7CA1BDB0BCDBFDEBF23
:020AF200099465
:100AF4002A88398848885F846E847D848C849B84AA
:100B0400AA84B984C884DF80EE80FD800C811B81B7
:100B1400AA81B981CE0FD11DCDBFDEBFED010895ED
:100B240090910008E0912D28EF5FE77080912C28C8
:100B3400E81759F0E0932D28F0E0E45EF74D908338
:0C0B440080912B288F5F80932B28089550
:100B5000A0E0B0E0EEEAF5E00C947105AE014B5F69
:100B60005F4FFA0161917191AF01809102289091DC
:0C0B700003280E94B500E2E00C948A0506
:100B7C001F920F920FB60F9211248F93EF93FF9346
:100B8C00E0E0F8E0848180648483FF91EF918F91A1
:0A0B9C000F900FBE0F901F901895E8
:100BA6001F920F920FB60F9211248F9381E08093BC
:0E0BB6008A008F910F900FBE0F901F90189520
:100BC4000E9496020E94FE050E9428060E942006AA
:0E0BD4000E94DB040E94F1050E9401050895B5
:100BE20040E068ED80E191E00E943506E0E1F1E04D
:0A0BF20012821382789480E00895C7
:100BFC0040E068ED80E890E00E943506E0E8F0E027
:080C0C001186108680E00895B6
:100C1400FC010590615070400110D8F780959095C3
:060C24008E0F9F1F0895D2
:100C2A00FC016150704001900110D8F780959095B1
:060C3A008E0F9F1F0895BC
:100C400040E068ED80E590E00E94350680E0089580
:100C500040E068ED80E091E00E94350680E0089574
:0A0C60000E94420580E090E0089534
:080C6A00FC0164BF4083089502
:040C72000C940000DE
:0E0C7600000000020000000030060000000038
:020C8400230546
:020C86009205D5
:02000004008278
:090000000000020000C00700002E
:00000001FF
