:100000000C9471000C94F8050C9493050C94F8056D
:100010000C94F8050C94F8050C94F8050C94F8056C
:100020000C94F8050C94F8050C94F8050C94F8055C
:100030000C94F8050C94F8050C94F8050C94F8054C
:100040000C94F8050C944C040C9473040C947E05E9
:100050000C94F8050C94F8050C94F8050C94F8052C
:100060000C94F8050C94F8050C94F8050C94F8051C
:100070000C94F8050C94F8050C94F8050C94F8050C
:100080000C94F8050C94F8050C94F8050C94F805FC
:100090000C94F8050C94F8050C94F8050C94F805EC
:1000A00028242826000C0228262828000C042828AA
:1000B0002829802829282A80282A282B80281428C3
:1000C0001C80282B282C80282C282D80282D282E99
:1000D00080281C28248028062814000BF4280028D7
:1000E000068011241FBECFEFCDBFDFE3DEBFE0EA05
:1000F000F0E040E017C0B591A591359125910591AB
:1001000007FD0CC095918591EF01F92FE82F05901F
:100110000D92A217B307D9F7FE0104C01D92A217D2
:10012000B307E1F7E23EF40731F70E9403030C94B2
:060130009900F894FFCFD6
:100136006D616465206974007269676874006C6536
:03014600667400DC
:10014A00ABE0B0E0EBEAF0E00C9421056C017B0136
:10015A008A01FC0116821782838181FFCCC1CE01FC
:10016A0001963C01F6019381F70193FD859193FF76
:10017A0081917F01882309F4BAC1853239F493FD4C
:10018A00859193FF81917F01853229F4B60190E030
:10019A000E94D903E7CF912C212C312CFFE1F315D2
:1001AA00D8F08B3279F038F4803279F08332A1F4C6
:1001BA00232D20611DC08D3261F0803369F4232D17
:1001CA00216016C0832D8260382EE32DE4603E2E16
:1001DA002AC0F32DF8601DC037FC2DC020ED280F72
:1001EA002A3040F08E32B9F436FC81C1232D2064C6
:1001FA00322E19C036FE06C08AE0989E200D1124C0
:10020A00922E11C0EAE02E9E200D1124222EF32DEB
:10021A00F0623F2E08C08C3621F4832D8068382E78
:10022A0002C0883641F4F70193FD859193FF8191CD
:10023A007F018111B3CF982F9F7D9554933028F475
:10024A000C5F1F4F9FE399830DC0833631F08337CC
:10025A0071F0833509F059C021C0F8018081898382
:10026A000E5F1F4F88248394912C530113C02801D9
:10027A00F2E04F0E511CF801A080B18036FE03C097
:10028A00692D70E002C06FEF7FEFC5010E94D405AF
:10029A004C018201F32DFF773F2E16C0280122E080
:1002AA00420E511CF801A080B18036FE03C0692DB0
:1002BA0070E002C06FEF7FEFC5010E94C9054C01D3
:1002CA00F32DF0683F2E820133FC1BC0822D90E093
:1002DA0088169906B0F4B60180E290E00E94D9032C
:1002EA002A94F4CFF50137FC859137FE81915F019D
:1002FA00B60190E00E94D90321102A9421E0821AC3
:10030A0091088114910471F7E8C0843611F0893696
:10031A0041F5F80137FE07C06081718182819381BE
:10032A000C5F1F4F08C060817181072E000C880B7B
:10033A00990B0E5F1F4FF32DFF763F2E97FF09C0D3
:10034A0090958095709561957F4F8F4F9F4FF0687C
:10035A003F2E2AE030E0A3010E947B03882E8618F4
:10036A0045C0853731F4232D2F7EB22E2AE030E0A6
:10037A0025C0932D997FB92E8F36C1F018F4883590
:10038A0079F0B5C0803719F0883721F0B0C0E92F6D
:10039A00E061BE2EB4FE0DC0FB2DF460BF2E09C075
:1003AA0034FE0AC0292F2660B22E06C028E030E0AB
:1003BA0005C020E130E002C020E132E0F801B7FEDA
:1003CA0007C060817181828193810C5F1F4F06C0D3
:1003DA006081718180E090E00E5F1F4FA3010E944F
:1003EA007B03882E8618FB2DFF773F2E36FE0DC025
:1003FA00232D2E7FA22E891458F434FE0BC032FC12
:10040A0009C0832D8E7EA82E05C0B82CA32C03C04C
:10041A00B82C01C0B92CA4FE0FC0FE01E80DF11DD5
:10042A008081803321F49A2D997EA92E09C0A2FEDB
:10043A0006C0B394B39404C08A2D867809F0B394A5
:10044A00A3FC11C0A0FE06C0B21488F4280C922C9A
:10045A009B180EC0B21460F4B60180E290E00E94CC
:10046A00D903B394F7CFB21418F42B1802C0982CFE
:10047A00212CA4FE10C0B60180E390E00E94D903AB
:10048A00A2FE17C0A1FC03C088E790E002C088E57D
:10049A0090E0B6010CC08A2D867859F0A1FE02C000
:1004AA008BE201C080E2A7FC8DE2B60190E00E94D7
:1004BA00D903891438F4B60180E390E00E94D90385
:1004CA009A94F7CF8A94F301E80DF11D8081B60161
:1004DA0090E00E94D9038110F5CF222009F442CE80
:1004EA00B60180E290E00E94D9032A94F6CFF60181
:1004FA008681978102C08FEF9FEF2B96E2E10C94E1
:02050A003A05B0
:10050C000F931F93CF93DF930E94150440E054E0A8
:10051C0081E0FA01808320E234E0F901108280E46A
:10052C0094E0FC011082C0E6D4E06FEF6883A0E891
:10053C00B4E01C9200EA14E060E2F8016083FA0176
:10054C001482F9011482FC0114821C8214961C92F0
:10055C00149760E1F8016483FA01108A118A128AF7
:10056C00138A148A158A168A178AF901108A118A35
:10057C00128A138A148A158A168A178AFC01108A21
:10058C00118A128A138A148A158A168A178A188A6B
:10059C00198A1A8A1B8A1C8A1D8A1E8A1F8A5096DF
:1005AC001C92509751961C92519752961C925297AE
:1005BC0053961C92539754961C92549755961C9292
:1005CC00559756961C92569757961C92F801108A7E
:1005DC00118A128A138A88E0848B158A168A178AE4
:1005EC00E0EEF5E0118210821482158213821282E1
:0A05FC00DF91CF911F910F91089538
:100606000E94A20586B382FBCC24C0F8D12C86B307
:1006160083FB662460F8712C86E391E49F938F93A5
:100626000E9468050F900F906894EE24E1F8F12C73
:100636000F2EF7EA8F2EF4E09F2EF02D68945524A6
:1006460055F80F2EFEE32F2EF1E43F2EF02DAA24AF
:10065600A394B12C86B382FB882780F9C82F20E0AB
:10066600D22F86B383FB002700F910E0CC16DD06F7
:1006760019F46016710621F1F4015082CA94CD284E
:1006860011F5209719F5660C771C21E0621A71089E
:1006960081E06816710439F43F922F920E94680532
:1006A6000F900F9015C09FEF6916790689F4E4E460
:1006B600F1E4FF93EF930E9468050F900F9008C036
:1006C600612C712C05C0612C712C02C0612C712C1F
:1006D600E60CF71C87E0E822FF24C5010E2C02C0B9
:1006E600880F991F0A94E2F78DB96E013801B2CFCF
:1006F600FA01AA27283051F1203181F1E8946F934D
:100706006E7F6E5F7F4F8F4F9F4FAF4FB1E03ED0F2
:10071600B4E03CD0670F781F891F9A1FA11D680F90
:10072600791F8A1F911DA11D6A0F711D811D911DC3
:10073600A11D20D009F468943F912AE0269F112438
:100746003019305D3193DEF6CF010895462F47709C
:10075600405D4193B3E00FD0C9F7F6CF462F4F70F7
:10076600405D4A3318F0495D31FD4052419302D055
:10077600A9F7EACFB4E0A6959795879577956795FB
:10078600BA95C9F700976105710508959B01AC01FB
:100796000A2E06945795479537952795BA95C9F722
:0C07A600620F731F841F951FA01D089593
:1007B2000F931F93CF93DF93FB01238121FD03C08E
:1007C2008FEF9FEF2CC022FF16C0468157812481F4
:1007D20035814217530744F4A081B1819D012F5FF7
:1007E2003F4F208331838C93268137812F5F3F4F88
:1007F2002683378314C08B01EC01FB010084F18551
:10080200E02D0995892BE1F6D80116968D919C91E0
:100812001797019616968D939C931797CE01DF91A9
:08082200CF911F910F91089581
:10082A00E0E9F4E0808188608193E83984E0F807A0
:10083A00C9F7E0EBF4E0808188608193E83B84E0CB
:10084A00F807C9F7E0E1F4E0808188608193E83134
:10085A0084E0F807C9F7E0E3F4E0808188608193D7
:10086A00E83384E0F807C9F7E0E5F4E080818860BE
:10087A008193E83584E0F807C9F7E0E7F4E080817E
:0E088A0088608193E83784E0F807C9F7089585
:100898001F920F920FB60F9211242F933F934F93ED
:1008A8005F936F937F938F939F93AF93BF93EF93D0
:1008B800FF93E0912628F09127280995FF91EF9161
:1008C800BF91AF919F918F917F916F915F914F9160
:0E08D8003F912F910F900FBE0F901F9018951B
:1008E6001F920F920FB60F9211242F933F934F939F
:1008F6005F936F937F938F939F93AF93BF93EF9382
:10090600FF93E0912428F09125280995FF91EF9116
:10091600BF91AF919F918F917F916F915F914F9111
:0E0926003F912F910F900FBE0F901F901895CC
:1009340040E068ED88E790E00E94F40540E068ED4F
:100944008CE790E00E94F40540E068ED80E790E0D9
:100954000E94F40541E168ED81E690E00E94F4050F
:1009640040E068ED80E690E00E94F40540E068ED28
:0C09740082E690E00E94F40580E0089507
:10098000E0E0F8E08EEA90E08087918780ED858353
:1009900080EC868383E48783138614861686158607
:1009A00010922C2810922D2810922B281092292872
:1009B00010922A281092282886E098E28093022834
:0609C00090930328089546
:1009C60080912828882389F0E0912928EF5FE77035
:1009D600E0932928F0E0EC5EF74D808180930208D1
:1009E6008091282881508093282880912828811179
:0E09F60005C0E0E0F8E085818F7D85830895DF
:100A040020912A282F5F2770909128289830E1F3AD
:100A1400E22FF0E0EC5EF74D808320932A280FB696
:100A2400F8940F92809128288F5F809328280F9044
:0E0A34000FBEE0E0F8E08581806285830895C2
:100A42002F923F924F925F926F927F928F929F92DC
:100A5200AF92BF92CF92DF92EF92FF920F931F93CA
:100A6200CF93DF93CDB7DEB7CA1BDB0BCDBFDEBFA3
:020A72000994E5
:100A74002A88398848885F846E847D848C849B842A
:100A8400AA84B984C884DF80EE80FD800C811B8138
:100A9400AA81B981CE0FD11DCDBFDEBFED0108956E
:100AA40090910008E0912D28EF5FE77080912C2849
:100AB400E81759F0E0932D28F0E0E45EF74D9083B9
:0C0AC40080912B288F5F80932B280895D1
:100AD000A0E0B0E0EEE6F5E00C943105AE014B5F2E
:100AE0005F4FFA0161917191AF018091022890915D
:0C0AF00003280E94A500E2E00C944A05D7
:100AFC001F920F920FB60F9211248F93EF93FF93C7
:100B0C00E0E0F8E0848180648483FF91EF918F9121
:0A0B1C000F900FBE0F901F90189568
:100B26001F920F920FB60F9211248F9381E080933C
:0E0B36008A008F910F900FBE0F901F901895A0
:100B44000E9486020E94BD050E94E7050E949A0445
:0E0B54000E94DF050E94B1050E94C0040895B2
:100B620040E068ED80E191E00E94F405E0E1F1E00F
:080B72001282138280E0089555
:100B7A0040E068ED80E890E00E94F405E0E8F0E0EB
:080B8A001186108680E0089539
:100B9200FC010590615070400110D8F78095909546
:060BA2008E0F9F1F089555
:100BA800FC016150704001900110D8F78095909534
:060BB8008E0F9F1F08953F
:100BBE0040E068ED80E590E00E94F40580E0089545
:100BCE0040E068ED80E091E00E94F40580E0089539
:0A0BDE000E94020580E090E00895F7
:080BE800FC0164BF4083089585
:040BF0000C94000061
:0E0BF4000000000200000000EF0500000000FD
:020C0200E30409
:020C0400520597
:02000004008278
:090000000000020000C00700002E
:00000001FF
