:100000000C9453000C94ED010C9498010C94ED01A8
:100010000C94ED010C94CF010C94ED010C94ED01C6
:100020000C94ED010C94ED010C94ED010C94ED0198
:100030000C94ED010C94ED010C94ED010C94ED0188
:100040000C94ED010C94ED010C94ED010C94ED0178
:100050000C94ED010C94ED010C94ED010C94ED0168
:100060000C94ED010C94ED010C94ED010C94ED0158
:100070000C94ED010C94ED010C94ED010C94ED0148
:100080000C94ED010C94ED010C94ED010C94ED0138
:100090000C94ED010C94ED010C94ED010C94ED0128
:1000A00028002804800011241FBECFEFCDBFDFE35E
:1000B000DEBFE0EAF0E040E017C0B591A5913591D0
:1000C0002591059107FD0CC095918591EF01F92FC0
:1000D000E82F05900D92A217B307D9F7FE0104C0CF
:1000E0001D92A217B307E1F7E53AF40731F70E9432
:0A00F0007B010C947B00F894FFCF15
:1000FA000F931F93CF93DF93809302289093032843
:10010A0060930028709301280E94FF0040E054E0A9
:10011A0068E0FA01608320E234E0F901108280E4A9
:10012A0094E0FC016083C0E6D4E06883A0E8B4E010
:10013A007FE07C9300EA14E0F8016083FA011482FC
:10014A00F9011482FC0114821C8214961C921497E1
:10015A00F8011482FA01108A118A128A138A148AFF
:10016A00158A168A178AF901108A118A128A138A3D
:10017A00148A158A168A178AFC01108A118A128A29
:10018A00138A148A158A168A178A188A198A1A8A61
:10019A001B8A1C8A1D8A1E8A1F8A50961C92509797
:1001AA0051961C92519752961C92529753961C92B2
:1001BA00539754961C92549755961C925597569657
:1001CA001C92569757961C92F801108A118A128A25
:1001DA00138A148A158A168A178AE0EEF5E01182C4
:1001EA0010821482158213821282DF91CF911F919D
:0401FA000F910895C4
:1001FE00E0E9F4E0808188608193E83984E0F807D3
:10020E00C9F7E0EBF4E0808188608193E83B84E0FD
:10021E00F807C9F7E0E1F4E0808188608193E83166
:10022E0084E0F807C9F7E0E3F4E080818860819309
:10023E00E83384E0F807C9F7E0E5F4E080818860F0
:10024E008193E83584E0F807C9F7E0E7F4E08081B0
:0E025E0088608193E83784E0F807C9F70895B7
:10026C0040E068ED88E790E00E94E90140E068ED2D
:10027C008CE790E00E94E90140E068ED80E790E0B7
:10028C000E94E90141E168ED81E690E00E94E901FC
:10029C0040E068ED80E690E00E94E90140E068ED06
:0C02AC0082E690E00E94E90180E00895E5
:1002B800E0ECF1E080E585831782118612861586C9
:1002C800168685E5818B128A858B168A11821282A1
:1002D8001386178684E0838B82E0878B10861486CA
:0E02E80081EC808B848B81E0808380E0089520
:1002F60060E070E080E090E00E94A70180E090E07E
:1003060041E050E020B131B12130310519F40196B8
:10031600837099279A01082E02C0220F331F0A9470
:0A032600E2F721BB10B811B8EDCFCB
:100330001F920F920FB60F9211248F9381E080933A
:0E0340008A008F910F900FBE0F901F9018959E
:10034E000E947D000E94C3010E94E1010E94D9011A
:0E035E000E9436010E945C010E94B6010895C3
:10036C0040E068ED80E191E00E94E901E0E1F1E01C
:0A037C0012821382789480E0089545
:1003860040E068ED80E890E00E94E901E0E8F0E0F6
:080396001186108680E0089535
:10039E001F920F920FB60F9211240F900FBE0F9057
:0403AE001F901895EF
:1003B20040E068ED80E590E00E94E90180E0089568
:1003C20040E068ED80E091E00E94E90180E008955C
:0803D200FC0164BF40830895A3
:0403DA000C9400007F
:02000004008278
:090000000000020000C00700002E
:00000001FF
