:100000000C9471000C940E060C94A8050C940E062A
:100010000C940E060C940E060C940E060C940E0610
:100020000C940E060C940E060C940E060C940E0600
:100030000C940E060C940E060C940E060C940E06F0
:100040000C940E060C945E040C9487040C94930597
:100050000C940E060C940E060C940E060C940E06D0
:100060000C940E060C940E060C940E060C940E06C0
:100070000C940E060C940E060C940E060C940E06B0
:100080000C940E060C940E060C940E060C940E06A0
:100090000C940E060C940E060C940E060C940E0690
:1000A00028242826000C2E28262828000C30282852
:1000B0002829802829282A80282A282B80281428C3
:1000C0001C80282B282C80282C282D80282D282E99
:1000D00080281C28248028062814000C20280028AA
:1000E000068011241FBECFEFCDBFDFE3DEBFE0EA05
:1000F000F0E040E017C0B591A591359125910591AB
:1001000007FD0CC095918591EF01F92FE82F05901F
:100110000D92A217B307D9F7FE0104C01D92A217D2
:10012000B307E1F7E23EF40731F70E9410030C94A5
:060130009900F894FFCFD6
:100136006F6C64413D2569096F6C64423D25690A0F
:100146006E6577413D2569096E6577423D25690AE9
:0E0156000052696768740D004C6566740D00F8
:10016400ABE0B0E0E8EBF0E00C9436056C017B0109
:100174008A01FC0116821782838181FFCCC1CE01E2
:1001840001963C01F6019381F70193FD859193FF5C
:1001940081917F01882309F4BAC1853239F493FD32
:1001A400859193FF81917F01853229F4B60190E016
:1001B4000E94EB03E7CF912C212C312CFFE1F315A6
:1001C400D8F08B3279F038F4803279F08332A1F4AC
:1001D400232D20611DC08D3261F0803369F4232DFD
:1001E400216016C0832D8260382EE32DE4603E2EFC
:1001F4002AC0F32DF8601DC037FC2DC020ED280F58
:100204002A3040F08E32B9F436FC81C1232D2064AB
:10021400322E19C036FE06C08AE0989E200D1124A5
:10022400922E11C0EAE02E9E200D1124222EF32DD1
:10023400F0623F2E08C08C3621F4832D8068382E5E
:1002440002C0883641F4F70193FD859193FF8191B3
:100254007F018111B3CF982F9F7D9554933028F45B
:100264000C5F1F4F9FE399830DC0833631F08337B2
:1002740071F0833509F059C021C0F8018081898368
:100284000E5F1F4F88248394912C530113C02801BF
:10029400F2E04F0E511CF801A080B18036FE03C07D
:1002A400692D70E002C06FEF7FEFC5010E94EA057F
:1002B4004C018201F32DFF773F2E16C0280122E066
:1002C400420E511CF801A080B18036FE03C0692D96
:1002D40070E002C06FEF7FEFC5010E94DF054C01A3
:1002E400F32DF0683F2E820133FC1BC0822D90E079
:1002F40088169906B0F4B60180E290E00E94EB0300
:100304002A94F4CFF50137FC859137FE81915F0182
:10031400B60190E00E94EB0321102A9421E0821A96
:1003240091088114910471F7E8C0843611F089367C
:1003340041F5F80137FE07C06081718182819381A4
:100344000C5F1F4F08C060817181072E000C880B61
:10035400990B0E5F1F4FF32DFF763F2E97FF09C0B9
:1003640090958095709561957F4F8F4F9F4FF06862
:100374003F2E2AE030E0A3010E948D03882E8618C8
:1003840045C0853731F4232D2F7EB22E2AE030E08C
:1003940025C0932D997FB92E8F36C1F018F4883576
:1003A40079F0B5C0803719F0883721F0B0C0E92F53
:1003B400E061BE2EB4FE0DC0FB2DF460BF2E09C05B
:1003C40034FE0AC0292F2660B22E06C028E030E091
:1003D40005C020E130E002C020E132E0F801B7FEC0
:1003E40007C060817181828193810C5F1F4F06C0B9
:1003F4006081718180E090E00E5F1F4FA3010E9435
:100404008D03882E8618FB2DFF773F2E36FE0DC0F8
:10041400232D2E7FA22E891458F434FE0BC032FCF7
:1004240009C0832D8E7EA82E05C0B82CA32C03C032
:10043400B82C01C0B92CA4FE0FC0FE01E80DF11DBB
:100444008081803321F49A2D997EA92E09C0A2FEC1
:1004540006C0B394B39404C08A2D867809F0B3948B
:10046400A3FC11C0A0FE06C0B21488F4280C922C80
:100474009B180EC0B21460F4B60180E290E00E94B2
:10048400EB03B394F7CFB21418F42B1802C0982CD2
:10049400212CA4FE10C0B60180E390E00E94EB037F
:1004A400A2FE17C0A1FC03C088E790E002C088E563
:1004B40090E0B6010CC08A2D867859F0A1FE02C0E6
:1004C4008BE201C080E2A7FC8DE2B60190E00E94BD
:1004D400EB03891438F4B60180E390E00E94EB0347
:1004E4009A94F7CF8A94F301E80DF11D8081B60147
:1004F40090E00E94EB038110F5CF222009F442CE54
:10050400B60180E290E00E94EB032A94F6CFF60154
:100514008681978102C08FEF9FEF2B96E2E10C94C6
:020524004F0581
:100526000F931F93CF93DF930E94270440E054E07C
:1005360081E0FA01808320E234E0F901108280E450
:1005460094E0FC011082C0E6D4E06FEF6883A0E877
:10055600B4E01C9200EA14E060E2F8016083FA015C
:100566001482F9011482FC0114821C8214961C92D6
:10057600149760E1F8016483FA01108A118A128ADD
:10058600138A148A158A168A178AF901108A118A1B
:10059600128A138A148A158A168A178AFC01108A07
:1005A600118A128A138A148A158A168A178A188A51
:1005B600198A1A8A1B8A1C8A1D8A1E8A1F8A5096C5
:1005C6001C92509751961C92519752961C92529794
:1005D60053961C92539754961C92549755961C9278
:1005E600559756961C92569757961C92F801108A64
:1005F600118A128A138A88E0848B158A168A178ACA
:10060600E0EEF5E0118210821482158213821282C6
:0A061600DF91CF911F910F9108951D
:100620000E94B70586B382FBCC24C0F8D12C86B3D8
:1006300083FB882780F9C82F20E0D22F6894882474
:1006400081F8912C0F2EF7EA6F2EF4E07F2EF02D1B
:100650006894332435F80F2EF6E34F2EF1E45F2E25
:10066000F02DAA24A394B12C86B382FB002700F9B5
:1006700010E086B383FBEE24E0F8F12CC016D1061F
:1006800019F4CE15DF0589F1F3013082FF92EF9264
:100690001F930F93DF93CF93DF92CF925F924F928E
:1006A0000E947D058DB79EB70A968DBF9EBFCA94E6
:1006B000CD28F1F401151105F1F4CC0FDD1F2197C0
:1006C000C130D10549F4E7E5F1E4FF93EF930E94CF
:1006D0007D050F900F9011C08EE591E49F938F934D
:1006E0000E947D050F900F9008C0C0E0D0E005C0CB
:1006F000C0E0D0E002C0C0E0D0E08C0E9D1EF7E06C
:100700008F229924C501082C02C0880F991F0A94D2
:0A071000E2F78DB96801E701A7CFF9
:10071A00FA01AA27283051F1203181F1E8946F9328
:10072A006E7F6E5F7F4F8F4F9F4FAF4FB1E03ED0CE
:10073A00B4E03CD0670F781F891F9A1FA11D680F6C
:10074A00791F8A1F911DA11D6A0F711D811D911D9F
:10075A00A11D20D009F468943F912AE0269F112414
:10076A003019305D3193DEF6CF010895462F477078
:10077A00405D4193B3E00FD0C9F7F6CF462F4F70D3
:10078A00405D4A3318F0495D31FD4052419302D031
:10079A00A9F7EACFB4E0A6959795879577956795D7
:1007AA00BA95C9F700976105710508959B01AC01D7
:1007BA000A2E06945795479537952795BA95C9F7FE
:0C07CA00620F731F841F951FA01D08956F
:1007D6000F931F93CF93DF93FB01238121FD03C06A
:1007E6008FEF9FEF2CC022FF16C0468157812481D0
:1007F60035814217530744F4A081B1819D012F5FD3
:100806003F4F208331838C93268137812F5F3F4F63
:100816002683378314C08B01EC01FB010084F1852C
:10082600E02D0995892BE1F6D80116968D919C91BC
:100836001797019616968D939C931797CE01DF9185
:08084600CF911F910F9108955D
:10084E00E0E9F4E0808188608193E83984E0F8077C
:10085E00C9F7E0EBF4E0808188608193E83B84E0A7
:10086E00F807C9F7E0E1F4E0808188608193E83110
:10087E0084E0F807C9F7E0E3F4E0808188608193B3
:10088E00E83384E0F807C9F7E0E5F4E0808188609A
:10089E008193E83584E0F807C9F7E0E7F4E080815A
:0E08AE0088608193E83784E0F807C9F7089561
:1008BC001F920F920FB60F9211242F933F934F93C9
:1008CC005F936F937F938F939F93AF93BF93EF93AC
:1008DC00FF93E0912628F0912728309709F009958D
:1008EC00FF91EF91BF91AF919F918F917F916F91FC
:1008FC005F914F913F912F910F900FBE0F901F90D2
:02090C0018953C
:10090E001F920F920FB60F9211242F933F934F9376
:10091E005F936F937F938F939F93AF93BF93EF9359
:10092E00FF93E0912428F0912528309709F009953E
:10093E00FF91EF91BF91AF919F918F917F916F91A9
:10094E005F914F913F912F910F900FBE0F901F907F
:02095E001895EA
:1009600040E068ED88E790E00E940A0640E068ED0C
:100970008CE790E00E940A0640E068ED80E790E096
:100980000E940A0641E168ED81E690E00E940A06B5
:1009900040E068ED80E690E00E940A0640E068EDE5
:0C09A00082E690E00E940A0680E00895C4
:1009AC00E0E0F8E08DE695E08087918780E4858330
:1009BC00868383E0878313861486168615861092A9
:1009CC002C2810922D2810922B2810922928109246
:1009DC002A281092282886E098E280930228909387
:0409EC00032808953F
:1009F00080912828882389F0E0912928EF5FE7700B
:100A0000E0932928F0E0EC5EF74D808180930208A6
:100A1000809128288150809328288091282881114E
:0E0A200005C0E0E0F8E085818F7D85830895B4
:100A2E0020912A282F5F2770909128289830E1F383
:100A3E00E22FF0E0EC5EF74D808320932A280FB66C
:100A4E00F8940F92809128288F5F809328280F901A
:0E0A5E000FBEE0E0F8E0858180628583089598
:100A6C002F923F924F925F926F927F928F929F92B2
:100A7C00AF92BF92CF92DF92EF92FF920F931F93A0
:100A8C00CF93DF93CDB7DEB7CA1BDB0BCDBFDEBF79
:020A9C000994BB
:100A9E002A88398848885F846E847D848C849B8400
:100AAE00AA84B984C884DF80EE80FD800C811B810E
:100ABE00AA81B981CE0FD11DCDBFDEBFED01089544
:100ACE0090910008E0912D28EF5FE77080912C281F
:100ADE00E81759F0E0932D28F0E0E45EF74D90838F
:0C0AEE0080912B288F5F80932B280895A7
:100AFA00A0E0B0E0E3E8F5E00C944605AE014B5FF8
:100B0A005F4FFA0161917191AF0180910228909132
:0C0B1A0003280E94B200E2E00C945F058A
:100B26001F920F920FB60F9211248F93EF93FF939C
:100B3600E0E0F8E0848180648483FF91EF918F91F7
:0A0B46000F900FBE0F901F9018953E
:100B50001F920F920FB60F9211248F9381E0809312
:0E0B60008A008F910F900FBE0F901F90189576
:100B6E000E9493020E94D3050E94FD050E94F50586
:0E0B7E000E94B0040E94C6050E94D60408958D
:100B8C0040E068ED80E191E00E940A06E0E1F1E0CE
:0A0B9C0012821382789480E008951D
:100BA60040E068ED80E890E00E940A06E0E8F0E0A8
:080BB6001186108680E008950D
:100BBE00FC010590615070400110D8F7809590951A
:060BCE008E0F9F1F089529
:100BD400FC016150704001900110D8F78095909508
:060BE4008E0F9F1F089513
:100BEA0040E068ED80E590E00E940A0680E0089502
:100BFA0040E068ED80E091E00E940A0680E00895F6
:0A0C0A000E94170580E090E00895B5
:080C1400FC0164BF4083089558
:040C1C000C94000034
:0E0C20000000000200000000050600000000B9
:020C2E00F804C8
:020C3000670556
:02000004008278
:090000000000020000C00700002E
:00000001FF
