:100000000C9450000C9416020C94CE010C94160221
:100010000C9416020C9416020C9416020C94160200
:100020000C9416020C9416020C9416020C941602F0
:100030000C9416020C9416020C9416020C941602E0
:100040000C9416020C9416020C9416020C941602D0
:100050000C9416020C9416020C9416020C941602C0
:100060000C9416020C9416020C9416020C941602B0
:100070000C9416020C9416020C9416020C941602A0
:100080000C9416020C9416020C9416020C94160290
:100090000C9416020C9416020C9416020C94160280
:1000A00011241FBECFEFCDBFDFE3DEBFE0EAF0E0FB
:1000B00040E017C0B591A59135912591059107FDB7
:1000C0000CC095918591EF01F92FE82F05900D92C5
:1000D000A217B307D9F7FE0104C01D92A217B307F8
:1000E000E1F7E03AF40731F70E944C010C947800F4
:0400F000F894FFCFB2
:1000F400CF93DF930E94EF0040E054E0FA011082B6
:1001040020E234E0F901108280E494E0FC011082E2
:10011400C0E6D4E06FE06883A0E8B4E01C9260EA33
:1001240074E0FB011082FA011482F9011482FC01CB
:1001340014821C8214961C921497FB011482FA01F7
:10014400108A118A128A138A148A158A168A178ABF
:10015400F901108A118A128A138A148A158A168A56
:10016400178AFC01108A118A128A138A148A158A42
:10017400168A178A188A198A1A8A1B8A1C8A1D8A5F
:100184001E8A1F8A50961C92509751961C92519722
:1001940052961C92529753961C92539754961C92C3
:1001A400549755961C92559756961C925697579667
:1001B4001C92FB01108A118A128A138A148A158AE6
:1001C400168A178AE0EEF5E01182108214821582F5
:0A01D40013821282DF91CF9108958B
:1001DE00E0E9F4E0808188608193E83984E0F807F3
:1001EE00C9F7E0EBF4E0808188608193E83B84E01E
:1001FE00F807C9F7E0E1F4E0808188608193E83187
:10020E0084E0F807C9F7E0E3F4E080818860819329
:10021E00E83384E0F807C9F7E0E5F4E08081886010
:10022E008193E83584E0F807C9F7E0E7F4E08081D0
:0E023E0088608193E83784E0F807C9F70895D7
:10024C0040E068ED88E790E00E94120240E068ED23
:10025C008CE790E00E94120240E068ED80E790E0AD
:10026C000E94120241E168ED81E690E00E941202C8
:10027C0040E068ED80E690E00E94120240E068EDFC
:0C028C0082E690E00E94120280E00895DB
:100298000E94DD0148EC50E065E070E080E694E003
:1002A8000E946F012AE28CE29AE02150804090403F
:1002B800E1F7000048EC50E065E070E080E694E08B
:1002C8000E9492012AE28CE29AE0215080409040FC
:0602D800E1F70000DFCF9A
:1002DE00EF92FF920F931F93CF93DF93161617068D
:1002EE009CF48B017C01C0E0D0E0C7010E94B501F7
:1002FE002AE684E091E0215080409040E1F700C072
:10030E0021960C171D0789F7DF91CF911F910F9141
:06031E00FF90EF9008952E
:10032400EF92FF920F931F93CF93DF931616170646
:100334009CF48B017C01C0E0D0E0C7010E94B501B0
:100344002AE684E091E0215080409040E1F700C02B
:1003540021960C171D0789F7DF91CF911F910F91FB
:06036400FF90EF900895E8
:10036A00FC0180818C3019F486E0808308958081B5
:10037A00863019F483E0808308958081833019F4EC
:10038A0089E0808308958081893011F48CE080832C
:02039A000895C4
:10039C001F920F920FB60F9211248F9381E08093CE
:0E03AC008A008F910F900FBE0F901F90189532
:1003BA000E947A000E94F6010E940A020E94260107
:0A03CA000E9402020E94EA01089559
:1003D40040E068ED80E191E00E941202E0E1F1E08A
:0803E4001282138280E00895EB
:1003EC0040E068ED80E890E00E941202E0E8F0E066
:0803FC001186108680E00895CF
:1004040040E068ED80E590E00E94120280E00895EB
:1004140040E068ED80E091E00E94120280E00895DF
:08042400FC0164BF4083089550
:04042C000C9400002C
:02000004008278
:090000000000020000C00700002E
:00000001FF
