:100000000C9450000C9480020C9413020C94800207
:100010000C9480020C9480020C9480020C94800258
:100020000C9480020C9480020C9480020C94800248
:100030000C9480020C9480020C9480020C94800238
:100040000C9480020C9480020C9480020C94800228
:100050000C9480020C9480020C9480020C94800218
:100060000C9480020C9480020C9480020C94800208
:100070000C9480020C9480020C9480020C948002F8
:100080000C9480020C9480020C9480020C948002E8
:100090000C9480020C9480020C9480020C948002D8
:1000A00011241FBECFEFCDBFDFE3DEBFE0EAF0E0FB
:1000B00040E017C0B591A59135912591059107FDB7
:1000C0000CC095918591EF01F92FE82F05900D92C5
:1000D000A217B307D9F7FE0104C01D92A217B307F8
:1000E000E1F7E03AF40731F70E9402020C9478003D
:0400F000F894FFCFB2
:1000F400CF93DF930E94F00040E054E0FA011082B5
:1001040020E234E0F901108280E494E061E0FC0133
:100114006083C0E6D4E06FE06883A0E8B4E01C929A
:1001240060EA74E0FB011082FA011482F90114827E
:10013400FC0114821C8214961C921497FB011482F5
:10014400FA01108A118A128A138A148A158A168A65
:10015400178AF901108A118A128A138A148A158A55
:10016400168A178AFC01108A118A128A138A148A41
:10017400158A168A178A188A198A1A8A1B8A1C8A67
:100184001D8A1E8A1F8A50961C92509751961C9263
:10019400519752961C92529753961C925397549689
:1001A4001C92549755961C92559756961C925697A6
:1001B40057961C92FB01108A118A128A138A148A98
:1001C400158A168A178AE0EEF5E0118210821482ED
:0C01D400158213821282DF91CF910895F2
:1001E000E0E9F4E0808188608193E83984E0F807F1
:1001F000C9F7E0EBF4E0808188608193E83B84E01C
:10020000F807C9F7E0E1F4E0808188608193E83184
:1002100084E0F807C9F7E0E3F4E080818860819327
:10022000E83384E0F807C9F7E0E5F4E0808188600E
:100230008193E83584E0F807C9F7E0E7F4E08081CE
:0E02400088608193E83784E0F807C9F70895D5
:10024E00CF92DF92EF92FF920F931F93CF93DF9394
:10025E0016161706ECF4EA017B016C0100E010E0C3
:10026E00C6010E94D0011C161D066CF420E030E081
:10027E0087EA91E60197F1F700C000002F5F3F4F2C
:10028E00C217D307A9F70F5F1F4FE016F10641F70C
:10029E00DF91CF911F910F91FF90EF90DF90CF9054
:0202AE000895B1
:1002B000CF92DF92EF92FF920F931F93CF93DF9332
:1002C00016161706ECF4EA017B016C0100E010E061
:1002D000C6010E94D0011C161D066CF420E030E01F
:1002E00087EA91E60197F1F700C000002F5F3F4FCA
:1002F000C217D307A9F70F5F1F4FE016F10641F7AA
:10030000DF91CF911F910F91FF90EF90DF90CF90F1
:0203100008954E
:1003120040E068ED88E790E00E947C0240E068EDF2
:100322008CE790E00E947C0240E068ED80E790E07C
:100332000E947C0241E168ED81E690E00E947C022D
:1003420040E068ED80E690E00E947C0240E068EDCB
:0C03520082E690E00E947C0280E00895AA
:10035E00FC01808121E030E0D90102C0AA0FBB1F51
:10036E006A95E2F7BD018A2B8083141615066CF48C
:10037E0020E030E087EA91E60197F1F700C0000037
:10038E002F5F3F4F42175307A9F780816823608381
:02039E000895C0
:1003A000FC0180818C3019F486E08083089580817F
:1003B000863019F483E0808308958081833019F4B6
:1003C00089E0808308958081893011F48CE08083F6
:0203D00008958E
:1003D200FC018081893019F483E080830895808153
:1003E200833019F486E0808308958081863019F481
:1003F2008CE08083089580818C3011F489E08083C1
:0204020008955B
:100404000E9422020E94720282E390E00E9447024C
:100414000E9459028AE090E00E9450020E947702F2
:02042400F1CF16
:100426001F920F920FB60F9211248F9381E0809343
:0E0436008A008F910F900FBE0F901F901895A7
:100444000E947A000E943B020E946A020E94890173
:0A0454000E9462020E942F02089528
:10045E0040E068ED80E191E00E947C02E0E1F1E095
:08046E001282138280E0089560
:1004760040E068ED80E890E00E947C02E0E8F0E071
:080486001186108680E0089544
:10048E0041E050E060E070E080E294E00E942701DD
:02049E000895BF
:1004A00041E050E060E070E080E294E00E9458019A
:0204B0000895AD
:1004B20045E050E060E070E080E494E00E94AF012B
:0204C20008959B
:1004C40040E068ED80E590E00E947C0280E00895C1
:1004D40040E068ED80E091E00E947C0280E00895B5
:0A04E40080E294E00E94D001089528
:0A04EE0080E294E00E94E901089505
:0804F800FC0164BF408308957C
:040500000C94000057
:02000004008278
:090000000000020000C00700002E
:00000001FF
