:100000000C9450000C94D1010C9489010C94D101F2
:100010000C94D1010C94D1010C94D1010C94D10118
:100020000C94D1010C94D1010C94D1010C94D10108
:100030000C94D1010C94D1010C94D1010C94D101F8
:100040000C94D1010C94D1010C94D1010C94D101E8
:100050000C94D1010C94D1010C94D1010C94D101D8
:100060000C94D1010C94D1010C94D1010C94D101C8
:100070000C94D1010C94D1010C94D1010C94D101B8
:100080000C94D1010C94D1010C94D1010C94D101A8
:100090000C94D1010C94D1010C94D1010C94D10198
:1000A00011241FBECFEFCDBFDFE3DEBFE0EAF0E0FB
:1000B00040E017C0B591A59135912591059107FDB7
:1000C0000CC095918591EF01F92FE82F05900D92C5
:1000D000A217B307D9F7FE0104C01D92A217B307F8
:1000E000E1F7E03AF40731F70E9470010C947800D0
:0400F000F894FFCFB2
:1000F400CF93DF930E94F00040E054E0FA011082B5
:1001040020E234E0F901108280E494E061E0FC0133
:100114006083C0E6D4E06FE06883A0E8B4E01C929A
:1001240060EA74E0FB011082FA011482F90114827E
:10013400FC0114821C8214961C921497FB011482F5
:10014400FA01108A118A128A138A148A158A168A65
:10015400178AF901108A118A128A138A148A158A55
:10016400168A178AFC01108A118A128A138A148A41
:10017400158A168A178A188A198A1A8A1B8A1C8A67
:100184001D8A1E8A1F8A50961C92509751961C9263
:10019400519752961C92529753961C925397549689
:1001A4001C92549755961C92559756961C925697A6
:1001B40057961C92FB01108A118A128A138A148A98
:1001C400158A168A178AE0EEF5E0118210821482ED
:0C01D400158213821282DF91CF910895F2
:1001E000E0E9F4E0808188608193E83984E0F807F1
:1001F000C9F7E0EBF4E0808188608193E83B84E01C
:10020000F807C9F7E0E1F4E0808188608193E83184
:1002100084E0F807C9F7E0E3F4E080818860819327
:10022000E83384E0F807C9F7E0E5F4E0808188600E
:100230008193E83584E0F807C9F7E0E7F4E08081CE
:0E02400088608193E83784E0F807C9F70895D5
:10024E0040E068ED88E790E00E94CD0140E068ED67
:10025E008CE790E00E94CD0140E068ED80E790E0F1
:10026E000E94CD0141E168ED81E690E00E94CD0152
:10027E0040E068ED80E690E00E94CD0140E068ED40
:0C028E0082E690E00E94CD0180E008951F
:10029A00CF93DF931F92CDB7DEB7FC0169839981B3
:1002AA00963059F018F4953059F010C0993059F039
:1002BA009A3061F486E080830AC085E0808307C0B3
:1002CA0089E0808304C08AE0808301C080E00F90C7
:0602DA00DF91CF910895B1
:1002E000CF93DF931F92CDB7DEB70E9498018AE0CB
:1002F0008983698184E694E00E944D0189832FE31C
:100300008DE093E0215080409040E1F700C0000074
:02031000F0CF2C
:100312001F920F920FB60F9211248F9381E0809358
:0E0322008A008F910F900FBE0F901F901895BC
:100330000E947A000E94B1010E94C5010E9427011B
:0A0340000E94BD010E94A50108956E
:10034A0040E068ED80E191E00E94CD01E0E1F1E05A
:08035A001282138280E0089575
:1003620040E068ED80E890E00E94CD01E0E8F0E036
:080372001186108680E0089559
:10037A0040E068ED80E590E00E94CD0180E00895BC
:10038A0040E068ED80E091E00E94CD0180E00895B0
:08039A00FC0164BF40830895DB
:0403A2000C940000B7
:02000004008278
:090000000000020000C00700002E
:00000001FF
