:100000000C9479000C9424030C94D2020C942403D5
:100010000C9424030C94FA020C9430010C942403E5
:100020000C9424030C9424030C9424030C942403B4
:100030000C9424030C9424030C9424030C942403A4
:100040000C9424030C9424030C9424030C94240394
:100050000C9424030C9424030C9424030C94240384
:100060000C9424030C9424030C94A0010C94C90157
:100070000C94AC020C9424030C9424030C942403DD
:100080000C9424030C9424030C9424030C94240354
:100090000C9424030C9424030C9424030C94240344
:1000A000282428268028262828802828282A8028CE
:1000B0002A282C00065E282C282E000660282E28D0
:1000C0002F80282F28308028302831802814281CA1
:1000D0008028312832802832283380283328348001
:1000E000281C2824802806281400065028002806EA
:1000F000800011241FBECFEFCDBFDFE3DEBFE0EAFB
:10010000F0E040E017C0B591A5913591259105919A
:1001100007FD0CC095918591EF01F92FE82F05900F
:100120000D92A217B307D9F7FE0104C01D92A217C2
:10013000B307E1F7E13FF40731F70E9421030C9484
:06014000A100F894FFCFBE
:100146000F931F93CF93DF930E94690140E054E021
:10015600FA01108220E234E0F901108280E494E092
:1001660069E0FC016083C0E6D4E078E07883A0E82B
:10017600B4E061E06C9300EA14E0F8017083FA01E0
:100186001482F9011482FC0114821C8214961C92BA
:100196001497F8011482FA01108A118A128A638B65
:1001A600148A158A168A178AF901108A118A128A00
:1001B600138A148A158A168A178AFC01108A118AEC
:1001C600128A138A148A158A168A178A188A198A2D
:1001D6001A8A1B8A1C8A1D8A1E8A1F8A50961C929E
:1001E600509751961C92519752961C92529753963D
:1001F6001C92539754961C92549755961C92559759
:1002060056961C92569757961C92F801108A118A98
:10021600128A138A148A158A168A178AE0EEF5E07E
:1002260011821082148215821382128286E293E072
:10023600809328289093292889E193E080932628A3
:100246009093272887E293E080932428909325288B
:0A025600DF91CF911F910F910895E1
:100260001F920F920FB60F9211242F933F934F932B
:100270005F936F937F938F939F93AF93BF93EF930E
:10028000FF93199B05C0E0912828F0912928099532
:100290001B9B05C0E0912628F09127280995189B03
:1002A00005C0E0912428F091252809958FEF83B9A6
:1002B000FF91EF91BF91AF919F918F917F916F913E
:1002C0005F914F913F912F910F900FBE0F901F9014
:0202D00018957F
:1002D200E0E9F4E0808188608193E83984E0F807FE
:1002E200C9F7E0EBF4E0808188608193E83B84E029
:1002F200F807C9F7E0E1F4E0808188608193E83192
:1003020084E0F807C9F7E0E3F4E080818860819334
:10031200E83384E0F807C9F7E0E5F4E0808188601B
:100322008193E83584E0F807C9F7E0E7F4E08081DB
:0E03320088608193E83784E0F807C9F70895E2
:100340001F920F920FB60F9211242F933F934F934A
:100350005F936F937F938F939F93AF93BF93EF932D
:10036000FF93E0912C28F0912D28309709F0099502
:10037000FF91EF91BF91AF919F918F917F916F917D
:100380005F914F913F912F910F900FBE0F901F9053
:020390001895BE
:100392001F920F920FB60F9211242F933F934F93F8
:1003A2005F936F937F938F939F93AF93BF93EF93DB
:1003B200FF93E0912A28F0912B28309709F00995B4
:1003C200FF91EF91BF91AF919F918F917F916F912B
:1003D2005F914F913F912F910F900FBE0F901F9001
:0203E20018956C
:1003E40040E068ED88E790E00E941D0340E068ED7E
:1003F4008CE790E00E941D0340E068ED80E790E008
:100404000E941D0341E168ED81E690E00E941D0316
:1004140040E068ED80E690E00E941D0340E068ED56
:0C04240082E690E00E941D0380E0089535
:10043000E0E2F8E08DE695E08087918780E48583AF
:10044000868383E08783138614861686158610922A
:100450003228109233281092312810922F281092AF
:10046000302810922E2886E098E2809302289093FC
:0404700003280895C0
:1004740080912E28882389F0E0912F28EF5FE77080
:10048400E0932F28F0E0EC5EF74D80818093220802
:1004940080912E28815080932E2880912E288111BE
:0E04A40005C0E0E2F8E085818F7D8583089534
:1004B200209130282F5F277090912E289830E1F3F9
:1004C200E22FF0E0EC5EF74D8083209330280FB6E8
:1004D200F8940F9280912E288F5F80932E280F9090
:0E04E2000FBEE0E2F8E0858180628583089518
:1004F000E0ECF1E082E08583178285E58187128652
:1005000015861686118A128A158A168A1182128217
:100510008EE083871786138A178A81EC808714867A
:0C052000108A148A81E0808380E0089536
:10052C0090912008E0913328EF5FE770809132289A
:10053C00E81759F0E0933328F0E0E45EF74D908330
:0C054C00809131288F5F80933128089542
:100558001F920F920FB60F9211248F93EF93FF9370
:10056800E0E2F8E0848180648483FF91EF918F91C9
:0A0578000F900FBE0F901F90189512
:100582000E94A3000E94EE020E940C030E94F2014C
:100592000E9404030E9478020E94E1020E94180253
:0205A2000895BA
:1005A4001F920F920FB60F9211248F9381E08093C4
:0E05B4008A008F910F900FBE0F901F90189528
:1005C20040E068ED80E191E00E941D03E0E1F1E08E
:0A05D20012821382789480E00895ED
:1005DC0040E068ED80E890E00E941D03E0E8F0E068
:0805EC001186108680E00895DD
:1005F4001F920F920FB60F9211240F900FBE0F90FF
:040604001F90189596
:1006080040E068ED80E590E00E941D0380E00895D9
:1006180040E068ED80E091E00E941D0380E00895CD
:0A0628000E94590280E090E008955E
:0806320081E080938704089524
:08063A00FC0164BF4083089538
:060642000E94C102FFCF7F
:040648000C9400000E
:02064C0008950F
:02064E0008950D
:0E065000000000020000000014030000000083
:02065E003A025E
:02066000960200
:02000004008278
:090000000000020000C00700002E
:00000001FF
