:100000000C947C000C94F5060C9492060C94F50666
:100010000C94F5060C94F5060C94F5060C94F50674
:100020000C94F5060C94F5060C94F5060C94F50664
:100030000C94F5060C94F5060C94F5060C94F50654
:100040000C94F5060C940D050C9436050C94590689
:100050000C94F5060C94F5060C94F5060C94F50634
:100060000C94F5060C94F5060C94F5060C94F50624
:100070000C94F5060C94F5060C94F5060C94F50614
:100080000C94F5060C94F5060C94F5060C94AB0450
:100090000C94F5060C94F5060C94F5060C94F506F4
:1000A00028362838802838283A80283A283C000EFC
:1000B0000E283C283E000E10283E283F80283F286E
:1000C000408028402841802826282E802841284228
:1000D0008028422843802843284480282E283680C0
:1000E000280A2818000DF228182826000E002800DB
:1000F0002806802806280A8011241FBECFEFCDBF16
:10010000DFE3DEBFE0EAF0E040E017C0B591A59183
:1001100035912591059107FD0CC095918591EF01D1
:10012000F92FE82F05900D92A217B307D9F7FE011A
:1001300004C01D92A217B307E1F7E83FF40731F7B7
:0C0140000E94AA020C94A400F894FFCFC7
:10014C00436C6F636B77697365207475726E206492
:10015C006574656374656400436F756E7465722DA8
:10016C00636C6F636B77697365207475726E206452
:10017C0065746563746564006D7365636F6E647339
:05018C003A202564008B
:10019200ABE0B0E0EFECF0E00C94E6056C017B0123
:1001A2008A01FC0116821782838181FFCCC1CE01B4
:1001B20001963C01F6019381F70193FD859193FF2E
:1001C20081917F01882309F4BAC1853239F493FD04
:1001D200859193FF81917F01853229F4B60190E0E8
:1001E2000E943804E7CF912C212C312CFFE1F3152A
:1001F200D8F08B3279F038F4803279F08332A1F47E
:10020200232D20611DC08D3261F0803369F4232DCE
:10021200216016C0832D8260382EE32DE4603E2ECD
:100222002AC0F32DF8601DC037FC2DC020ED280F29
:100232002A3040F08E32B9F436FC81C1232D20647D
:10024200322E19C036FE06C08AE0989E200D112477
:10025200922E11C0EAE02E9E200D1124222EF32DA3
:10026200F0623F2E08C08C3621F4832D8068382E30
:1002720002C0883641F4F70193FD859193FF819185
:100282007F018111B3CF982F9F7D9554933028F42D
:100292000C5F1F4F9FE399830DC0833631F0833784
:1002A20071F0833509F059C021C0F801808189833A
:1002B2000E5F1F4F88248394912C530113C0280191
:1002C200F2E04F0E511CF801A080B18036FE03C04F
:1002D200692D70E002C06FEF7FEFC5010E94C40676
:1002E2004C018201F32DFF773F2E16C0280122E038
:1002F200420E511CF801A080B18036FE03C0692D68
:1003020070E002C06FEF7FEFC5010E94B9064C0199
:10031200F32DF0683F2E820133FC1BC0822D90E04A
:1003220088169906B0F4B60180E290E00E94380483
:100332002A94F4CFF50137FC859137FE81915F0154
:10034200B60190E00E94380421102A9421E0821A1A
:1003520091088114910471F7E8C0843611F089364E
:1003620041F5F80137FE07C0608171818281938176
:100372000C5F1F4F08C060817181072E000C880B33
:10038200990B0E5F1F4FF32DFF763F2E97FF09C08B
:1003920090958095709561957F4F8F4F9F4FF06834
:1003A2003F2E2AE030E0A3010E94DA03882E86184D
:1003B20045C0853731F4232D2F7EB22E2AE030E05E
:1003C20025C0932D997FB92E8F36C1F018F4883548
:1003D20079F0B5C0803719F0883721F0B0C0E92F25
:1003E200E061BE2EB4FE0DC0FB2DF460BF2E09C02D
:1003F20034FE0AC0292F2660B22E06C028E030E063
:1004020005C020E130E002C020E132E0F801B7FE91
:1004120007C060817181828193810C5F1F4F06C08A
:100422006081718180E090E00E5F1F4FA3010E9406
:10043200DA03882E8618FB2DFF773F2E36FE0DC07D
:10044200232D2E7FA22E891458F434FE0BC032FCC9
:1004520009C0832D8E7EA82E05C0B82CA32C03C004
:10046200B82C01C0B92CA4FE0FC0FE01E80DF11D8D
:100472008081803321F49A2D997EA92E09C0A2FE93
:1004820006C0B394B39404C08A2D867809F0B3945D
:10049200A3FC11C0A0FE06C0B21488F4280C922C52
:1004A2009B180EC0B21460F4B60180E290E00E9484
:1004B2003804B394F7CFB21418F42B1802C0982C56
:1004C200212CA4FE10C0B60180E390E00E94380403
:1004D200A2FE17C0A1FC03C088E790E002C088E535
:1004E20090E0B6010CC08A2D867859F0A1FE02C0B8
:1004F2008BE201C080E2A7FC8DE2B60190E00E948F
:100502003804891438F4B60180E390E00E9438047C
:100512009A94F7CF8A94F301E80DF11D8081B60118
:1005220090E00E9438048110F5CF222009F442CED7
:10053200B60180E290E00E9438042A94F6CFF601D8
:100542008681978102C08FEF9FEF2B96E2E10C9498
:02055200FF05A3
:100554000E94810682B380FBCC24C0F8D12C82B3E4
:1005640081FB002700F910E0C2E0D0E00F2EF8EE86
:100574006F2EF3E07F2EF02D0F2EF4E84F2EF1E4D2
:100584005F2EF02D82B38170382E82B381FBEE246E
:10059400E0F8F12C80E090E00E946E064B015C01D3
:1005A400C114D104B9F581E038127AC0C701992782
:1005B4000817190779F40115110529F48CE491E45D
:1005C4000E94DD0407C00130110521F484E691E4A2
:1005D4000E94DD0480E090E00E946E06DC01CB0105
:1005E40088199909AA09BB09869D9001879D300D38
:1005F400969D300D11243F932F935F924F920E944A
:100604004306000F000F000F01500F900F900F9042
:100614000F903CC0CA94CD28B1F5311036C0C70143
:1006240099270817190779F40130110529F48CE486
:1006340091E40E94DD0407C00115110521F484E64C
:1006440091E40E94DD0480E090E00E946E06DC01EB
:10065400CB0188199909AA09BB09869D9001879D38
:10066400300D969D300D11243F932F935F924F923E
:100674000E944306000F000F000F01500F900F90CF
:100684000F900F9003C000E001C000E0C00FD11D27
:10069400CF71DD27C32CD12C87011127C5BB72CFA5
:0406A40000E0F4CFAF
:1006A8000F931F93CF93DF930E94740440E054E0AC
:1006B80061E0FA01608320E234E0F901108280E40D
:1006C80094E0FC016083C0E6D4E01882A0E8B4E0BE
:1006D8001C9200EA14E078E1F8017083FA011482B0
:1006E800F9011482FC0114821C8214961C9214973E
:1006F800F8011482FA01108A118A128A138A148A5C
:10070800158A168A178AF901108A118A128A138A99
:10071800148A158A168A178AFC01108A118A128A85
:10072800138A148A158A168A178A188A198A1A8ABD
:100738001B8A1C8A1D8A1E8A1F8A50966C935097A2
:1007480051966C93519752961C92529753961C92BD
:10075800539754961C92549755961C9255975696B3
:100768001C92569757961C92F801108A118A128A81
:10077800138A148A158A168A178AE0EEF5E0118220
:100788001082148215821382128287EF96E080937A
:1007980038289093392888EF96E0809336289093EC
:0C07A8003728DF91CF911F910F91089529
:1007B400FA01AA27283051F1203181F1E8946F938E
:1007C4006E7F6E5F7F4F8F4F9F4FAF4FB1E03ED034
:1007D400B4E03CD0670F781F891F9A1FA11D680FD2
:1007E400791F8A1F911DA11D6A0F711D811D911D05
:1007F400A11D20D009F468943F912AE0269F11247A
:100804003019305D3193DEF6CF010895462F4770DD
:10081400405D4193B3E00FD0C9F7F6CF462F4F7038
:10082400405D4A3318F0495D31FD4052419302D096
:10083400A9F7EACFB4E0A69597958795779567953C
:10084400BA95C9F700976105710508959B01AC013C
:100854000A2E06945795479537952795BA95C9F763
:0C086400620F731F841F951FA01D0895D4
:100870000F931F93CF93DF93FB01238121FD03C0CF
:100880008FEF9FEF2CC022FF16C046815781248135
:1008900035814217530744F4A081B1819D012F5F38
:1008A0003F4F208331838C93268137812F5F3F4FC9
:1008B0002683378314C08B01EC01FB010084F18592
:1008C000E02D0995892BE1F6D80116968D919C9122
:1008D0001797019616968D939C931797CE01DF91EB
:0808E000CF911F910F910895C3
:1008E800E0E9F4E0808188608193E83984E0F807E2
:1008F800C9F7E0EBF4E0808188608193E83B84E00D
:10090800F807C9F7E0E1F4E0808188608193E83175
:1009180084E0F807C9F7E0E3F4E080818860819318
:10092800E83384E0F807C9F7E0E5F4E080818860FF
:100938008193E83584E0F807C9F7E0E7F4E08081BF
:0E09480088608193E83784E0F807C9F70895C6
:100956001F920F920FB60F9211242F933F934F932E
:100966005F936F937F938F939F93AF93BF93EF9311
:10097600FF93989B05C0E0913828F0913928099596
:10098600999B05C0E0913628F091372809958FEF9D
:1009960083BBFF91EF91BF91AF919F918F917F9113
:1009A6006F915F914F913F912F910F900FBE0F90D6
:0409B6001F901895E1
:1009BA000F931F93CF93DF93E0910228F0910328BE
:1009CA00238121FF1BC08C01D0E0C0E0F801819196
:1009DA008F016091022870910328DB011896ED912E
:1009EA00FC911997882331F00995892B79F3DFEF68
:1009FA00CFEFECCF8AE00995892B19F08FEF9FEFA3
:100A0A0002C08D2F9C2FDF91CF911F910F910895D6
:100A1A001F920F920FB60F9211242F933F934F9369
:100A2A005F936F937F938F939F93AF93BF93EF934C
:100A3A00FF93E0913C28F0913D28309709F0099501
:100A4A00FF91EF91BF91AF919F918F917F916F919C
:100A5A005F914F913F912F910F900FBE0F901F9072
:020A6A001895DD
:100A6C001F920F920FB60F9211242F933F934F9317
:100A7C005F936F937F938F939F93AF93BF93EF93FA
:100A8C00FF93E0913A28F0913B28309709F00995B3
:100A9C00FF91EF91BF91AF919F918F917F916F914A
:100AAC005F914F913F912F910F900FBE0F901F9020
:020ABC0018958B
:100ABE0040E068ED88E790E00E94F10640E068EDC6
:100ACE008CE790E00E94F10640E068ED80E790E050
:100ADE000E94F10641E168ED81E690E00E94F10688
:100AEE0040E068ED80E690E00E94F10640E068ED9F
:0C0AFE0082E690E00E94F10680E008957E
:100B0A00E0E0F8E08DE695E08087918780ED8583C7
:100B1A0080EC868383E0878313861486168615867F
:100B2A0010924228109243281092412810923F288E
:100B3A001092402810923E288AE098E28093022878
:060B4A00909303280895BA
:100B500080913E28882389F0E0913F28EF5FE7707D
:100B6000E0933F28F0E0EA5DF74D80818093020832
:100B700080913E28815080933E2880913E288111AB
:0E0B800005C0E0E0F8E085818F7D8583089553
:100B8E00209140282F5F277090913E289830E1F3F6
:100B9E00E22FF0E0EA5DF74D8083209340280FB6F8
:100BAE00F8940F9280913E288F5F80933E280F908D
:0E0BBE000FBEE0E0F8E0858180628583089537
:100BCC002F923F924F925F926F927F928F929F9251
:100BDC00AF92BF92CF92DF92EF92FF920F931F933F
:100BEC00CF93DF93CDB7DEB7CA1BDB0BCDBFDEBF18
:020BFC0009945A
:100BFE002A88398848885F846E847D848C849B849F
:100C0E00AA84B984C884DF80EE80FD800C811B81AC
:100C1E00AA81B981CE0FD11DCDBFDEBFED010895E2
:100C2E0090910008E0914328EF5FE7708091422891
:100C3E00E81759F0E0934328F0E0E25DF74D90831A
:0C0C4E00809141288F5F80934128089519
:100C5A00E0E2F8E08DE695E080879187158280ECE6
:100C6A00868383E08783138614861686158688E131
:0C0C7A0098E280930228909303280895CC
:100C8600A0E0B0E0E9E4F6E00C94F605AE014B5FB7
:100C96005F4FFA0161917191AF01809102289091A5
:0C0CA60003280E94C900E2E00C940F0635
:100CB2001F920F920FB60F9211248F93EF93FF930F
:100CC200E0E0F8E0848180648483FF91EF918F916A
:0A0CD2000F900FBE0F901F901895B1
:100CDC00FC010FB6F894609106287091072880915A
:100CEC000828909109280FBE309721F060837183FA
:060CFC008283938308953A
:100D02000E9454030E94AD060E94DF060E94D7068D
:100D12000E945F050E94A1060E9485050E942D0681
:020D2200089532
:100D24001F920F920FB60F9211248F9381E080933C
:0E0D34008A008F910F900FBE0F901F901895A0
:100D420040E068ED80E191E00E94F106E0E1F1E02F
:080D52001282138280E0089573
:100D5A0040E068ED80E890E00E94F106E0E8F0E00B
:080D6A001186108680E0089557
:100D7200FC010590615070400110D8F78095909564
:060D82008E0F9F1F089573
:100D8800FC016150704001900110D8F78095909552
:060D98008E0F9F1F08955D
:100D9E00E0E2F8E0948195FFFDCF8093220808955C
:100DAE0040E068ED80E590E00E94F10680E0089555
:100DBE0040E068ED80E091E00E94F10680E0089549
:0A0DCE000E94C70580E090E0089540
:0A0DD8000E94CF0680E090E008952D
:080DE200FC0164BF4083089589
:040DEA000C94000065
:020DEE00089566
:020DF000089564
:0E0DF2000000000200000000E7060000000004
:0E0E00000000000200000000EC0600000000F0
:020E0E00A80535
:020E10001706C3
:02000004008278
:090000000000020000C00700002E
:00000001FF
