:100000000C9476000C9415030C94C6020C94150302
:100010000C9415030C9415030C9415030C94150300
:100020000C9415030C9415030C9415030C941503F0
:100030000C9415030C9415030C9415030C941503E0
:100040000C9415030C94C2010C94EB010C94B102B6
:100050000C9415030C9415030C9415030C941503C0
:100060000C9415030C9415030C9415030C941503B0
:100070000C9415030C9415030C9415030C941503A0
:100080000C9415030C9415030C9415030C94900117
:100090000C9415030C9415030C9415030C94150380
:1000A000282428268028262828802828282A000670
:1000B00040282A282C000642282C282D80282D286C
:1000C0002E80282E282F802814281C80282F2830A6
:1000D0008028302831802831283280281C2824802C
:1000E00028062814000632280028068011241FBE86
:1000F000CFEFCDBFDFE3DEBFE0EAF0E040E017C0C6
:10010000B591A59135912591059107FD0CC095916B
:100110008591EF01F92FE82F05900D92A217B307F3
:10012000D9F7FE0104C01D92A217B307E1F7EC3E18
:10013000F40731F70E945D010C949E00F894FFCF04
:100140000F931F93CF93DF930E94260140E054E06A
:1001500061E0FA01608320E234E0F901108280E47A
:1001600094E0FC011082C0E6D4E01882A0E8B4E07C
:100170001C9200EA14E078E1F8017083FA0114821D
:10018000F9011482FC0114821C8214961C921497AB
:10019000F8011482FA01108A118A128A138A148AC9
:1001A000158A168A178AF901108A118A128A138A07
:1001B000148A158A168A178AFC01108A118A128AF3
:1001C000138A148A158A168A178A188A198A1A8A2B
:1001D0001B8A1C8A1D8A1E8A1F8A50966C93509710
:1001E00051966C93519752961C92529753961C922B
:1001F000539754961C92549755961C925597569621
:100200001C92569757961C92F801108A118A128AEE
:10021000138A148A158A168A178AE0EEF5E011828D
:100220001082148215821382128287E193E08093F8
:1002300026289093272888E193E0809324289093A0
:0C0240002528DF91CF911F910F910895A8
:10024C00E0E9F4E0808188608193E83984E0F80784
:10025C00C9F7E0EBF4E0808188608193E83B84E0AF
:10026C00F807C9F7E0E1F4E0808188608193E83118
:10027C0084E0F807C9F7E0E3F4E0808188608193BB
:10028C00E83384E0F807C9F7E0E5F4E080818860A2
:10029C008193E83584E0F807C9F7E0E7F4E0808162
:0E02AC0088608193E83784E0F807C9F7089569
:1002BA000E94D50282B380FBEE24E0F8F12C82B3CF
:1002CA0086958170C82F20E0D22F82E090E022B379
:1002DA00022F017010E022B326952170EA94EF28CC
:1002EA0059F40115110559F4CC0FDD1FCC0FDD1F90
:1002FA00CC0FDD1F219705C0C0E0D0E002C0C0E0EE
:10030A00D0E08C0F9D1F8F71992785BB7801C22F72
:06031A0020E0D22FDCCF31
:100320001F920F920FB60F9211242F933F934F936A
:100330005F936F937F938F939F93AF93BF93EF934D
:10034000FF93989B05C0E0912628F09127280995F6
:10035000999B05C0E0912428F091252809958FEFFD
:1003600083BBFF91EF91BF91AF919F918F917F914F
:100370006F915F914F913F912F910F900FBE0F9012
:040380001F9018951D
:100384001F920F920FB60F9211242F933F934F9306
:100394005F936F937F938F939F93AF93BF93EF93E9
:1003A400FF93E0912A28F0912B28309709F00995C2
:1003B400FF91EF91BF91AF919F918F917F916F9139
:1003C4005F914F913F912F910F900FBE0F901F900F
:0203D40018957A
:1003D6001F920F920FB60F9211242F933F934F93B4
:1003E6005F936F937F938F939F93AF93BF93EF9397
:1003F600FF93E0912828F0912928309709F0099574
:10040600FF91EF91BF91AF919F918F917F916F91E6
:100416005F914F913F912F910F900FBE0F901F90BC
:02042600189527
:1004280040E068ED88E790E00E94110340E068ED45
:100438008CE790E00E94110340E068ED80E790E0CF
:100448000E94110341E168ED81E690E00E941103EA
:1004580040E068ED80E690E00E94110340E068ED1E
:0C04680082E690E00E94110380E00895FD
:10047400E0E0F8E08DE695E08087918780ED858364
:1004840080EC868383E0878313861486168615861C
:10049400109230281092312810922F2810922D2873
:1004A40010922E2810922C2886E098E2809302283D
:0604B40090930328089557
:1004BA0080912C28882389F0E0912D28EF5FE7703E
:1004CA00E0932D28F0E0EC5EF74D808180930208DE
:1004DA0080912C28815080932C2880912C2881117E
:0E04EA0005C0E0E0F8E085818F7D85830895F0
:1004F80020912E282F5F277090912C289830E1F3B7
:10050800E22FF0E0EC5EF74D808320932E280FB6A3
:10051800F8940F9280912C288F5F80932C280F904D
:0E0528000FBEE0E0F8E08581806285830895D3
:1005360090910008E0913128EF5FE77080913028B4
:10054600E81759F0E0933128F0E0E45EF74D908328
:0C05560080912F288F5F80932F2808953C
:100562001F920F920FB60F9211248F93EF93FF9366
:10057200E0E0F8E0848180648483FF91EF918F91C1
:0A0582000F900FBE0F901F90189508
:10058C001F920F920FB60F9211248F9381E08093DC
:0E059C008A008F910F900FBE0F901F90189540
:1005AA000E94A0000E94F0020E9404030E94FC0222
:0E05BA000E9414020E94E4020E943A02089578
:1005C80040E068ED80E191E00E941103E0E1F1E094
:0805D8001282138280E00895F5
:1005E00040E068ED80E890E00E941103E0E8F0E070
:0805F0001186108680E00895D9
:1005F80040E068ED80E590E00E94110380E00895F6
:1006080040E068ED80E091E00E94110380E00895E9
:0A0618000E947C0280E090E008954B
:08062200FC0164BF4083089550
:04062A000C9400002C
:02062E0008952D
:0206300008952B
:0E06320000000002000000000C0300000000A9
:020640005D0259
:020642009B0219
:02000004008278
:090000000000020000C00700002E
:00000001FF
