:100000000C947B000C9435060C94CF050C943506AB
:100010000C9435060C9435060C9452040C94350659
:100020000C9435060C9435060C9435060C94350664
:100030000C9435060C9435060C9435060C94350654
:100040000C9435060C9484040C94AD040C94BA05FD
:100050000C9435060C9435060C9435060C94350634
:100060000C9435060C9435060C9435060C94350624
:100070000C9435060C9435060C9435060C94350614
:100080000C9435060C9435060C9435060C9420041B
:100090000C9435060C9435060C9435060C943506F4
:1000A000282428268028262828802828282A8028CE
:1000B0002A282C80282C282E000C84282E2830005A
:1000C0000C86283028318028312832802832283385
:1000D000802814281C802833283480283428358030
:1000E0002835283680281C28248028062814000C4F
:1000F00076280028068011241FBECFEFCDBFDFE396
:10010000DEBFE0EAF0E040E017C0B591A59135917F
:100110002591059107FD0CC095918591EF01F92F6F
:10012000E82F05900D92A217B307D9F7FE0104C07E
:100130001D92A217B307E1F7E63FF40731F70E94DB
:0A014000EA030C94A300F894FFCF2B
:10014A00ABE0B0E0EBEAF0E00C945D056C017B01FA
:10015A008A01FC0116821782838181FFCCC1CE01FC
:10016A0001963C01F6019381F70193FD859193FF76
:10017A0081917F01882309F4BAC1853239F493FD4C
:10018A00859193FF81917F01853229F4B60190E030
:10019A000E947703E7CF912C212C312CFFE1F31534
:1001AA00D8F08B3279F038F4803279F08332A1F4C6
:1001BA00232D20611DC08D3261F0803369F4232D17
:1001CA00216016C0832D8260382EE32DE4603E2E16
:1001DA002AC0F32DF8601DC037FC2DC020ED280F72
:1001EA002A3040F08E32B9F436FC81C1232D2064C6
:1001FA00322E19C036FE06C08AE0989E200D1124C0
:10020A00922E11C0EAE02E9E200D1124222EF32DEB
:10021A00F0623F2E08C08C3621F4832D8068382E78
:10022A0002C0883641F4F70193FD859193FF8191CD
:10023A007F018111B3CF982F9F7D9554933028F475
:10024A000C5F1F4F9FE399830DC0833631F08337CC
:10025A0071F0833509F059C021C0F8018081898382
:10026A000E5F1F4F88248394912C530113C02801D9
:10027A00F2E04F0E511CF801A080B18036FE03C097
:10028A00692D70E002C06FEF7FEFC5010E94110671
:10029A004C018201F32DFF773F2E16C0280122E080
:1002AA00420E511CF801A080B18036FE03C0692DB0
:1002BA0070E002C06FEF7FEFC5010E9406064C0195
:1002CA00F32DF0683F2E820133FC1BC0822D90E093
:1002DA0088169906B0F4B60180E290E00E9477038E
:1002EA002A94F4CFF50137FC859137FE81915F019D
:1002FA00B60190E00E94770321102A9421E0821A25
:10030A0091088114910471F7E8C0843611F0893696
:10031A0041F5F80137FE07C06081718182819381BE
:10032A000C5F1F4F08C060817181072E000C880B7B
:10033A00990B0E5F1F4FF32DFF763F2E97FF09C0D3
:10034A0090958095709561957F4F8F4F9F4FF0687C
:10035A003F2E2AE030E0A3010E941903882E861856
:10036A0045C0853731F4232D2F7EB22E2AE030E0A6
:10037A0025C0932D997FB92E8F36C1F018F4883590
:10038A0079F0B5C0803719F0883721F0B0C0E92F6D
:10039A00E061BE2EB4FE0DC0FB2DF460BF2E09C075
:1003AA0034FE0AC0292F2660B22E06C028E030E0AB
:1003BA0005C020E130E002C020E132E0F801B7FEDA
:1003CA0007C060817181828193810C5F1F4F06C0D3
:1003DA006081718180E090E00E5F1F4FA3010E944F
:1003EA001903882E8618FB2DFF773F2E36FE0DC087
:1003FA00232D2E7FA22E891458F434FE0BC032FC12
:10040A0009C0832D8E7EA82E05C0B82CA32C03C04C
:10041A00B82C01C0B92CA4FE0FC0FE01E80DF11DD5
:10042A008081803321F49A2D997EA92E09C0A2FEDB
:10043A0006C0B394B39404C08A2D867809F0B394A5
:10044A00A3FC11C0A0FE06C0B21488F4280C922C9A
:10045A009B180EC0B21460F4B60180E290E00E94CC
:10046A007703B394F7CFB21418F42B1802C0982C60
:10047A00212CA4FE10C0B60180E390E00E9477030D
:10048A00A2FE17C0A1FC03C088E790E002C088E57D
:10049A0090E0B6010CC08A2D867859F0A1FE02C000
:1004AA008BE201C080E2A7FC8DE2B60190E00E94D7
:1004BA007703891438F4B60180E390E00E94770349
:1004CA009A94F7CF8A94F301E80DF11D8081B60161
:1004DA0090E00E9477038110F5CF222009F442CEE2
:1004EA00B60180E290E00E9477032A94F6CFF601E3
:1004FA008681978102C08FEF9FEF2B96E2E10C94E1
:02050A00760574
:10050C000F931F93CF93DF930E94B30340E054E00B
:10051C0080E1FA01808320E234E0F901108280E46A
:10052C0094E0FC011082C0E6D4E01882A0E8B4E0AC
:10053C001C9200EA14E068E1F8016083FA0114826D
:10054C00F9011482FC0114821C8214961C921497DB
:10055C00F8011482FA01108A118A128A138A61E056
:10056C00648B658B168A178AF901108A118A128A94
:10057C00138A148A158A168A178AFC01108A118A22
:10058C00128A138A148A158A168A178A188A198A63
:10059C001A8A1B8A1C8A1D8A1E8A1F8A50966C9383
:1005AC00509751966C93519752961C925297539622
:1005BC001C92539754961C92549755961C9255978F
:1005CC0056961C92569757961C92F801108A118ACF
:1005DC00128A138A148A158A168A178AE0EEF5E0B5
:1005EC0011821082148215821382628387E396E053
:1005FC0080932A2890932B2888E396E080932828D0
:10060C009093292889E396E08093262890932728B5
:10061C008AE396E08093242890932528DF91CF914C
:06062C001F910F910895DB
:10063200FA01AA27283051F1203181F1E8946F9311
:100642006E7F6E5F7F4F8F4F9F4FAF4FB1E03ED0B7
:10065200B4E03CD0670F781F891F9A1FA11D680F55
:10066200791F8A1F911DA11D6A0F711D811D911D88
:10067200A11D20D009F468943F912AE0269F1124FD
:100682003019305D3193DEF6CF010895462F477061
:10069200405D4193B3E00FD0C9F7F6CF462F4F70BC
:1006A200405D4A3318F0495D31FD4052419302D01A
:1006B200A9F7EACFB4E0A6959795879577956795C0
:1006C200BA95C9F700976105710508959B01AC01C0
:1006D2000A2E06945795479537952795BA95C9F7E7
:0C06E200620F731F841F951FA01D089558
:1006EE000F931F93CF93DF93FB01238121FD03C053
:1006FE008FEF9FEF2CC022FF16C0468157812481B9
:10070E0035814217530744F4A081B1819D012F5FBB
:10071E003F4F208331838C93268137812F5F3F4F4C
:10072E002683378314C08B01EC01FB010084F18515
:10073E00E02D0995892BE1F6D80116968D919C91A5
:10074E001797019616968D939C931797CE01DF916E
:08075E00CF911F910F91089546
:10076600E0E9F4E0808188608193E83984E0F80765
:10077600C9F7E0EBF4E0808188608193E83B84E090
:10078600F807C9F7E0E1F4E0808188608193E831F9
:1007960084E0F807C9F7E0E3F4E08081886081939C
:1007A600E83384E0F807C9F7E0E5F4E08081886083
:1007B6008193E83584E0F807C9F7E0E7F4E0808143
:0E07C60088608193E83784E0F807C9F708954A
:1007D4000E94DE0582B380FBCC24C0F882B381FB87
:1007E400002700F988E08093A5042AE23CE29AE01D
:1007F400215030409040E1F700008093A60412B3EA
:10080400117082B381FBEE24E0F8F12C000FC02FAD
:10081400CC0D812F880F880FC80F8E2D880F880F5D
:10082400880FC80F1F92CF930E94A405CC0FC12E2E
:0C08340087011127C5BB0F900F90E1CF8A
:100840001F920F920FB60F9211242F933F934F9345
:100850005F936F937F938F939F93AF93BF93EF9328
:10086000FF93989B05C0E0912628F09127280995D1
:10087000999B05C0E0912428F091252809958FEFD8
:1008800083BBFF91EF91BF91AF919F918F917F912A
:100890006F915F914F913F912F910F900FBE0F90ED
:0408A0001F901895F8
:1008A4001F920F920FB60F9211242F933F934F93E1
:1008B4005F936F937F938F939F93AF93BF93EF93C4
:1008C400FF931C9B05C0E0912A28F0912B280995E1
:1008D4001D9B05C0E0912828F091292809958FEFE8
:1008E40083B9FF91EF91BF91AF919F918F917F91C8
:1008F4006F915F914F913F912F910F900FBE0F9089
:040904001F90189593
:100908001F920F920FB60F9211242F933F934F937C
:100918005F936F937F938F939F93AF93BF93EF935F
:10092800FF93E0912E28F0912F28309709F0099530
:10093800FF91EF91BF91AF919F918F917F916F91AF
:100948005F914F913F912F910F900FBE0F901F9085
:020958001895F0
:10095A001F920F920FB60F9211242F933F934F932A
:10096A005F936F937F938F939F93AF93BF93EF930D
:10097A00FF93E0912C28F0912D28309709F00995E2
:10098A00FF91EF91BF91AF919F918F917F916F915D
:10099A005F914F913F912F910F900FBE0F901F9033
:0209AA0018959E
:1009AC0040E068ED88E790E00E94310640E068ED99
:1009BC008CE790E00E94310640E068ED80E790E023
:1009CC000E94310641E168ED81E690E00E9431061B
:1009DC0040E068ED80E690E00E94310640E068ED72
:0C09EC0082E690E00E94310680E0089551
:1009F800E0E0F8E084E790E08087918784EF8583E2
:100A080080EC868383E08783138614861686158692
:100A180010923428109235281092332810923128D9
:100A2800109232281092302886E098E280930228AB
:060A3800909303280895CD
:100A3E0080913028882389F0E0913128EF5FE770AC
:100A4E00E0933128F0E0EC5EF74D80818093020850
:100A5E0080913028815080933028809130288111E8
:0E0A6E0005C0E0E0F8E085818F7D8583089566
:100A7C00209132282F5F2770909130289830E1F325
:100A8C00E22FF0E0EC5EF74D8083209332280FB616
:100A9C00F8940F92809130288F5F809330280F90BC
:0E0AAC000FBEE0E0F8E085818062858308954A
:100ABA002F923F924F925F926F927F928F929F9264
:100ACA00AF92BF92CF92DF92EF92FF920F931F9352
:100ADA00CF93DF93CDB7DEB7CA1BDB0BCDBFDEBF2B
:020AEA0009946D
:100AEC002A88398848885F846E847D848C849B84B2
:100AFC00AA84B984C884DF80EE80FD800C811B81C0
:100B0C00AA81B981CE0FD11DCDBFDEBFED010895F5
:100B1C0090910008E0913528EF5FE77080913428C0
:100B2C00E81759F0E0933528F0E0E45EF74D908338
:0C0B3C00809133288F5F80933328089548
:100B4800A0E0B0E0EAEAF5E00C946D05AE014B5F79
:100B58005F4FFA0161917191AF01809102289091E4
:0C0B680003280E94A500E2E00C94860522
:100B74001F920F920FB60F9211248F93EF93FF934E
:100B8400E0E0F8E0848180648483FF91EF918F91A9
:0A0B94000F900FBE0F901F901895F0
:100B9E001F920F920FB60F9211248F9381E08093C4
:0E0BAE008A008F910F900FBE0F901F90189528
:100BBC000E9486020E94FA050E9424060E94D60416
:0E0BCC000E941C060E94ED050E94FC04089584
:100BDA0040E068ED80E191E00E943106E0E1F1E059
:0A0BEA0012821382789480E00895CF
:100BF40040E068ED80E890E00E943106E0E8F0E033
:080C04001186108680E00895BE
:100C0C00FC010590615070400110D8F780959095CB
:060C1C008E0F9F1F0895DA
:100C2200FC016150704001900110D8F780959095B9
:060C32008E0F9F1F0895C4
:100C380040E068ED80E590E00E94310680E008958C
:100C480040E068ED80E091E00E94310680E0089580
:0A0C58000E943E0580E090E0089540
:080C6200FC0164BF408308950A
:040C6A000C940000E6
:020C6E000895E7
:020C70000895E5
:020C72000895E3
:020C74000895E1
:0E0C760000000002000000002C06000000003C
:020C84001F054A
:020C86008E05D9
:02000004008278
:090000000000020000C00700002E
:00000001FF
