:100000000C9450000C949B010C9450010C949B0197
:100010000C949B010C949B010C949B010C949B01F0
:100020000C949B010C949B010C949B010C949B01E0
:100030000C949B010C949B010C949B010C949B01D0
:100040000C949B010C949B010C949B010C949B01C0
:100050000C949B010C949B010C949B010C949B01B0
:100060000C949B010C949B010C949B010C949B01A0
:100070000C949B010C949B010C949B010C949B0190
:100080000C949B010C949B010C949B010C949B0180
:100090000C949B010C949B010C949B010C949B0170
:1000A00011241FBECFEFCDBFDFE3DEBFE0EAF0E0FB
:1000B00040E017C0B591A59135912591059107FDB7
:1000C0000CC095918591EF01F92FE82F05900D92C5
:1000D000A217B307D9F7FE0104C01D92A217B307F8
:1000E000E1F7E03AF40731F70E9498010C947800A8
:0400F000F894FFCFB2
:1000F4000F931F93CF93DF930E94F30040E054E0EB
:10010400FA01108220E234E0F901108280E494E0E4
:10011400FC011082C0E6D4E01882A0E8B4E01C928E
:1001240000EA14E060E2F8016083FA011482F90144
:100134001482FC0114821C8214961C921497F801F8
:100144001482FA01108A118A128A138A148A158A6F
:10015400168A178AF901108A118A128A138A148A54
:10016400158A168A178AFC01108A118A128A138A40
:10017400148A158A168A178A188A198A1A8A1B8A6F
:100184001C8A1D8A1E8A1F8A50961C92509751966B
:100194001C92519752961C92529753961C925397C5
:1001A40054961C92549755961C92559756961C92A9
:1001B400569757961C92F801108A118A128A138A4C
:1001C400148A158A168A178AE0EEF5E011821082E5
:1001D4001482158213821282DF91CF911F910F91A5
:0201E40008957C
:1001E600E0E9F4E0808188608193E83984E0F807EB
:1001F600C9F7E0EBF4E0808188608193E83B84E016
:10020600F807C9F7E0E1F4E0808188608193E8317E
:1002160084E0F807C9F7E0E3F4E080818860819321
:10022600E83384E0F807C9F7E0E5F4E08081886008
:100236008193E83584E0F807C9F7E0E7F4E08081C8
:0E02460088608193E83784E0F807C9F70895CF
:1002540040E068ED88E790E00E94940140E068ED9A
:100264008CE790E00E94940140E068ED80E790E024
:100274000E94940145E068ED81E690E00E949401BB
:1002840040E068ED80E690E00E94940140E068ED73
:0C02940082E690E00E94940180E0089552
:1002A0001F920F920FB60F9211248F9381E08093CB
:0E02B0008A008F910F900FBE0F901F9018952F
:1002BE000E947A000E9478010E948C010E948401A3
:0A02CE000E942A010E946C010895AD
:1002D80040E068ED80E191E00E949401E0E1F1E006
:0802E8001282138280E00895E8
:1002F00040E068ED80E890E00E949401E0E8F0E0E2
:080300001186108680E00895CB
:1003080040E068ED80E590E00E94940180E0089567
:1003180040E068ED80E091E00E94940180E008955B
:08032800FC0164BF408308954D
:060330000E945F01FFCFF7
:040336000C94000023
:02000004008278
:090000000000020000C00700002E
:00000001FF
