:100000000C9474000C948C030C9422030C948C03B9
:100010000C948C030C944A030C94A4010C948C0350
:100020000C948C030C948C030C948C030C948C0314
:100030000C948C030C948C030C948C030C948C0304
:100040000C948C030C948C030C948C030C948C03F4
:100050000C9416020C948C030C948C030C948C035B
:100060000C94DD010C948C030C948C030C948C0385
:100070000C948C030C946B010C948C030C948C03E7
:100080000C948C030C948C030C948C030C948C03B4
:100090000C948C030C948C030C948C030C948C03A4
:1000A000281428168028162818802818281A80282E
:1000B0001A281C80281C281E80281E282080282002
:1000C00028228028222824802824282680282628C0
:1000D00028802828282A80282A282C8028062814C6
:1000E00000072C280028068011241FBECFEFCDBFAB
:1000F000DFE3DEBFE0EAF0E040E017C0B591A59194
:1001000035912591059107FD0CC095918591EF01E1
:10011000F92FE82F05900D92A217B307D9F7FE012A
:1001200004C01D92A217B307E1F7E83EF40731F7C8
:0C0130000E9489030C949C00F894FFCFFF
:10013C00313A203100303A203100333A203100324C
:04014C003A20310024
:100150000F931F93CF93DF930E944F0240E054E030
:1001600068E0FA01608320E234E081E0F9018083F5
:1001700080E494E0FC016083C0E6D4E06883A0E8FA
:10018000B4E01C9200EA14E0F8016083FA011482E2
:10019000F9011482FC0114821C8214961C9214979B
:1001A000F8011482FA01108A118A128A62E0638BC4
:1001B000148A158A168A178AF901108A118A128AF6
:1001C000138A148A158A168A178AFC01108A118AE2
:1001D000128A638B148A158A168A178A188A198AD2
:1001E0001A8A6B8B1C8A1D8A1E8A1F8A50961C9243
:1001F000509751961C92519752961C925297539633
:100200001C92539754961C92549755961C9255974E
:1002100056961C92569757961C92F801108A118A8E
:10022000128A638B148A158A168A178AE0EEF5E023
:100230001182108214821582138212828EE893E05A
:1002400080932A2890932B288CE693E0809328288B
:100250009093292881E793E080932628909327287C
:100260008FE893E0809324289093252880E993E0F9
:10027000809322289093232881E993E0809320287B
:100280009093212882E993E080931E2890931F2861
:1002900086E793E080931C2890931D2883E993E0E0
:1002A00080931A2890931B2884E993E08093182860
:1002B000909319288BE793E0809316289093172842
:1002C00085E993E08093142890931528DF91CF91CE
:0602D0001F910F9108953B
:1002D6001F920F920FB60F9211242F933F934F93B5
:1002E6005F936F937F938F939F93AF93BF93EF9398
:1002F600FF93B99B05C0E0912428F0912528099524
:10030600B89B05C0E0912228F09123280995BB9B54
:1003160005C0E0911C28F0911D2809958FEF87BB39
:10032600FF91EF91BF91AF919F918F917F916F91C7
:100336005F914F913F912F910F900FBE0F901F909D
:02034600189508
:100348001F920F920FB60F9211242F933F934F9342
:100358005F936F937F938F939F93AF93BF93EF9325
:10036800FF93199B05C0E0912A28F0912B28099545
:100378001B9B05C0E0912628F09127280995189B1A
:1003880005C0E0911828F091192809958FEF83B9D5
:10039800FF91EF91BF91AF919F918F917F916F9155
:1003A8005F914F913F912F910F900FBE0F901F902B
:0203B800189596
:1003BA001F920F920FB60F9211242F933F934F93D0
:1003CA005F936F937F938F939F93AF93BF93EF93B3
:1003DA00FF935B9B05C0E0912828F0912928099595
:1003EA00589B05C0E0912028F09121280995599B36
:1003FA0005C0E0911428F091152809958FEF8BB963
:10040A00FF91EF91BF91AF919F918F917F916F91E2
:10041A005F914F913F912F910F900FBE0F901F90B8
:02042A00189523
:10042C001F920F920FB60F9211242F933F934F935D
:10043C005F936F937F938F939F93AF93BF93EF9340
:10044C00FF93799B05C0E0911E28F0911F28099518
:10045C00789B05C0E0911A28F0911B2809957B9B8D
:10046C0005C0E0911628F091172809958FEF8FB9E8
:10047C00FF91EF91BF91AF919F918F917F916F9170
:10048C005F914F913F912F910F900FBE0F901F9046
:02049C001895B1
:10049E00E0E9F4E0808188608193E83984E0F80730
:1004AE00C9F7E0EBF4E0808188608193E83B84E05B
:1004BE00F807C9F7E0E1F4E0808188608193E831C4
:1004CE0084E0F807C9F7E0E3F4E080818860819367
:1004DE00E83384E0F807C9F7E0E5F4E0808188604E
:1004EE008193E83584E0F807C9F7E0E7F4E080810E
:0E04FE0088608193E83784E0F807C9F7089515
:10050C000F931F93CF93DF93E0910228F091032870
:10051C00238121FF1BC08C01D0E0C0E0F801819148
:10052C008F016091022870910328DB011896ED91E0
:10053C00FC911997882331F00995892B79F3DFEF1A
:10054C00CFEFECCF8AE00995892B19F08FEF9FEF55
:10055C0002C08D2F9C2FDF91CF911F910F91089589
:10056C0040E068ED88E790E00E94850340E068ED8C
:10057C008CE790E00E94850340E068ED80E790E016
:10058C000E94850341E168ED81E690E00E948503BD
:10059C0040E068ED80E690E00E94850340E068ED65
:0C05AC0082E690E00E94850380E0089544
:1005B800E0ECF1E01582178285E581871286858750
:1005C8001686818B128A858B168A1182128291E097
:1005D800938782E0878784E0838B88E0878B89E430
:0E05E80080878487808B848B908380E00895C9
:1005F600E0E6F8E08DE695E080879187158280E455
:10060600868383E08783138614861686158686E09E
:0C06160098E28093022890930328089536
:100622000E94A8000E943E030E945C030E945403A1
:100632000E94B6020E94FB020E94DC020E94310369
:02064200089519
:100644001F920F920FB60F9211248F9381E0809323
:0E0654008A008F910F900FBE0F901F90189587
:1006620041E068ED80E191E00E948503E0E1F1E084
:0A06720012821382789480E008954C
:10067C0040E068ED80E890E00E948503E0E8F0E05F
:08068C001186108680E008953C
:100694001F920F920FB60F9211240F900FBE0F905E
:0406A4001F901895F6
:1006A80040E068ED80E590E00E94850380E00895D1
:1006B80040E068ED80E091E00E94850380E00895C5
:1006C800E0E6F8E0948195FFFDCF809362080895F5
:0A06D8008CE391E40E94860208956D
:0A06E20081E491E40E94860208956D
:0A06EC0086E491E40E94860208955E
:0A06F6008BE491E40E94860208954F
:0A0700000E94640380E090E0089579
:08070A00FC0164BF4083089567
:060712000E941103FFCF5D
:040718000C9400003D
:02071C0008953E
:02071E0008953C
:0207200008953A
:02072200089538
:02072400089536
:02072600089534
:02072800089532
:02072A00089530
:0E072C0000000002000000008003000000003A
:02000004008278
:090000000000020000C00700002E
:00000001FF
