:100000000C9464000C9484020C9427020C948402D7
:100010000C9484020C9484020C94BB010C94840212
:100020000C9484020C9484020C9484020C94840238
:100030000C9484020C9484020C9484020C94840228
:100040000C9484020C9484020C9484020C94840218
:100050000C9484020C9484020C9484020C94840208
:100060000C9484020C9484020C9484020C948402F8
:100070000C9484020C943D010C9484020C94840230
:100080000C9484020C9484020C9484020C948402D8
:100090000C9484020C9484020C9484020C948402C8
:1000A000280428068028062808802808280A80288E
:1000B0000A280C80280C280E80280E281080281072
:1000C000281280280028048011241FBECFEFCDBF46
:1000D000DFE3DEBFE0EAF0E040E017C0B591A591B4
:1000E00035912591059107FD0CC095918591EF0102
:1000F000F92FE82F05900D92A217B307D9F7FE014B
:1001000004C01D92A217B307E1F7E83CF40731F7EA
:0C0110000E9413020C948C00F894FFCFA6
:10011C000F931F93CF93DF93809302289093032820
:10012C0060930028709301280E94840140E054E001
:10013C00FA01108220E234E0F901108280E494E0AC
:10014C00FC011082C0E6D4E068E36883A0E8B4E068
:10015C001C9200EA14E0F801608361E0FA01648308
:10016C00F9011482FC0114821C8214961C921497BF
:10017C0070E2F801748379E0FA01708B618B128A5A
:10018C00138A148A158A168A178AF901108A118A19
:10019C00128A138A148A158A168A178AFC01108A05
:1001AC00118A128A138A148A158A168A178A188A4F
:1001BC00198A1A8A1B8A1C8A1D8A1E8A1F8A5096C3
:1001CC001C92509751961C92519752961C92529792
:1001DC0053961C92539754961C92549755961C9276
:1001EC00559756961C92569757961C92F801108A62
:1001FC00118A628B138A148A158A88E8868B178A6F
:10020C00E0EEF5E0118210821482158213821282C4
:10021C0086E892E080931028909311288DE592E067
:10022C0080930E2890930F2887E892E080930C28F7
:10023C0090930D2888E892E080930A2890930B28DD
:10024C0089E892E0809308289093092887E692E049
:10025C0080930628909307288AE892E080930428DC
:0E026C0090930528DF91CF911F910F91089577
:10027A001F920F920FB60F9211242F933F934F9311
:10028A005F936F937F938F939F93AF93BF93EF93F4
:10029A00FF93BE9B05C0E0911028F09111280995A3
:1002AA00BB9B05C0E0910C28F0910D280995BA9BDB
:1002BA0005C0E0910A28F0910B280995BD9B05C05D
:1002CA00E0910828F09109280995BC9B05C0E091A6
:1002DA000428F091052809958FEF87BBFF91EF91CC
:1002EA00BF91AF919F918F917F916F915F914F9144
:0E02FA003F912F910F900FBE0F901F901895FF
:10030800E0E9F4E0808188608193E83984E0F807C7
:10031800C9F7E0EBF4E0808188608193E83B84E0F2
:10032800F807C9F7E0E1F4E0808188608193E8315B
:1003380084E0F807C9F7E0E3F4E0808188608193FE
:10034800E83384E0F807C9F7E0E5F4E080818860E5
:100358008193E83584E0F807C9F7E0E7F4E08081A5
:0E03680088608193E83784E0F807C9F70895AC
:100376001F920F920FB60F9211242F933F934F9314
:100386005F936F937F938F939F93AF93BF93EF93F7
:10039600FF93199B05C0E0910E28F0910F2809954F
:1003A600189B05C0E0910628F091072809958FEF64
:1003B60083B9FF91EF91BF91AF919F918F917F91FB
:1003C6006F915F914F913F912F910F900FBE0F90BC
:0403D6001F901895C7
:1003DA0040E068ED88E790E00E94800240E068ED26
:1003EA008CE790E00E94800240E068ED80E790E0B0
:1003FA000E94800241E168ED81E690E00E9480025D
:10040A0040E068ED80E690E00E94800240E068EDFE
:0C041A0082E690E00E94800280E00895DD
:1004260082B182B160E070E080E090E00E9450020C
:10043600A5EAB4E098E0E6EAF4E080E122B122B170
:0804460022B19C938083FACFE0
:10044E001F920F920FB60F9211248F9381E080931B
:0E045E008A008F910F900FBE0F901F9018957F
:10046C0040E068ED80E191E00E948002E0E1F1E083
:0A047C0012821382789480E0089544
:1004860040E068ED80E890E00E948002E0E8F0E05D
:0A04960081E08187108680E0089560
:1004A0000E948E000E9443020E9478020E94ED0189
:0A04B0000E9470020E9436020895B7
:1004BA00E0910028F091012882B1869581708083AD
:0404CA0011820895FE
:1004CE00E0910228F091032882B18170808311821D
:0204DE0008957F
:1004E00040E068ED80E590E00E94800280E00895A1
:1004F00040E068ED80E091E00E94800280E0089595
:08050000FC0164BF4083089573
:040508000C9400004F
:02050C00089550
:02050E0008954E
:0205100008954C
:0205120008954A
:02051400089548
:02000004008278
:090000000000020000C00700002E
:00000001FF
