:100000000C946A000C94F7020C9497020C94F7027B
:100010000C94F7020C94BF020C9441010C94F7026B
:100020000C94F7020C94F7020C94F7020C94F7026C
:100030000C94F7020C94F7020C94F7020C94F7025C
:100040000C94F7020C94F7020C94F7020C94F7024C
:100050000C94F7020C94F7020C94F7020C94F7023C
:100060000C9481010C94F7020C94F7020C94F702A3
:100070000C94F7020C94F7020C94F7020C94F7021C
:100080000C94F7020C94F7020C94F7020C94F7020C
:100090000C94F7020C94F7020C94F7020C94F702FC
:1000A000281428168028162818802818281A80282E
:1000B0001A281C80281C281E80281E282080282002
:1000C0002822802822282480280628140005FE28BB
:1000D0000028068011241FBECFEFCDBFDFE3DEBFB7
:1000E000E0EAF0E040E017C0B591A5913591259187
:1000F000059107FD0CC095918591EF01F92FE82F2F
:1001000005900D92A217B307D9F7FE0104C01D9206
:10011000A217B307E1F7E43DF40731F70E94F402B8
:080120000C949200F894FFCF4B
:040128004C00520035
:10012C000F931F93CF93DF930E94C10140E054E0E3
:10013C0068E0FA01608320E234E081E0F901808319
:10014C0080E494E0FC016083C0E6D4E06883A0E81E
:10015C00B4E01C9200EA14E0F8016083FA01148206
:10016C00F9011482FC0114821C8214961C921497BF
:10017C00F8011482FA01108A118A128A62E0638BE8
:10018C00148A158A168A178AF901108A118A128A1A
:10019C00138A148A158A168A178AFC01108A118A06
:1001AC00128A638B148A158A168A178A188A198AF6
:1001BC001A8A1B8A1C8A1D8A1E8A1F8A50961C92B8
:1001CC00509751961C92519752961C925297539657
:1001DC001C92539754961C92549755961C92559773
:1001EC0056961C92569757961C92F801108A118AB3
:1001FC00128A138A148A158A168A178AE0EEF5E099
:10020C0011821082148215821382128289EF92E07D
:10021C0080932228909323288AEF92E080932028C1
:10022C009093212881EE92E080931E2890931F28B2
:10023C0086EE92E080931C2890931D288BEF92E021
:10024C0080931A2890931B288CEF92E080931828A7
:10025C00909319288DEF92E080931628909317288D
:10026C008EEF92E08093142890931528DF91CF9114
:06027C001F910F9108958F
:100282001F920F920FB60F9211242F933F934F9309
:100292005F936F937F938F939F93AF93BF93EF93EC
:1002A200FF931A9B05C0E0912228F091232809951B
:1002B200199B05C0E0912028F091212809951B9BEC
:1002C20005C0E0911C28F0911D280995189B05C0D6
:1002D200E0911828F091192809958FEF83B9FF91C1
:1002E200EF91BF91AF919F918F917F916F915F91AC
:1002F2004F913F912F910F900FBE0F901F90189525
:100302001F920F920FB60F9211242F933F934F9388
:100312005F936F937F938F939F93AF93BF93EF936B
:10032200FF935B9B05C0E0911E28F0911F28099561
:10033200589B05C0E0911A28F0911B2809955A9BF9
:1003420005C0E0911628F09117280995599B05C020
:10035200E0911428F091152809958FEF8BB9FF9140
:10036200EF91BF91AF919F918F917F916F915F912B
:100372004F913F912F910F900FBE0F901F901895A4
:10038200E0E9F4E0808188608193E83984E0F8074D
:10039200C9F7E0EBF4E0808188608193E83B84E078
:1003A200F807C9F7E0E1F4E0808188608193E831E1
:1003B20084E0F807C9F7E0E3F4E080818860819384
:1003C200E83384E0F807C9F7E0E5F4E0808188606B
:1003D2008193E83584E0F807C9F7E0E7F4E080812B
:0E03E20088608193E83784E0F807C9F7089532
:1003F0000F931F93CF93DF93E0910228F09103288E
:10040000238121FF1BC08C01D0E0C0E0F801819165
:100410008F016091022870910328DB011896ED91FD
:10042000FC911997882331F00995892B79F3DFEF37
:10043000CFEFECCF8AE00995892B19F08FEF9FEF72
:1004400002C08D2F9C2FDF91CF911F910F910895A6
:1004500040E068ED88E790E00E94F00240E068ED3F
:100460008CE790E00E94F00240E068ED80E790E0C9
:100470000E94F00241E168ED81E690E00E94F00206
:1004800040E068ED80E690E00E94F00240E068ED18
:0C04900082E690E00E94F00280E00895F7
:10049C00E0ECF1E01582178285E5818795E0928783
:1004AC0085879687818B128A858B81E0868B11825A
:1004BC00828390E2938790E49787838B99E8978B5C
:1004CC0091EE9087948791E4908B90ED948B808340
:0404DC0080E008951F
:1004E000E0E6F8E08DE695E080879187158280E46C
:1004F000868383E08783138614861686158686E0B6
:0C05000098E2809302289093032808954D
:10050C000E9496000E94B3020E94D9020E94D1025E
:10051C000E9428020E9470020E944E020E94A602B3
:02052C00089530
:10052E001F920F920FB60F9211248F9381E080933A
:0E053E008A008F910F900FBE0F901F9018959E
:10054C0040E068ED80E191E00E94F002E0E1F1E032
:0A055C0012821382789480E0089563
:1005660040E068ED80E890E00E94F002E0E8F0E00C
:080576001186108680E0089553
:10057E001F920F920FB60F9211240F900FBE0F9075
:04058E001F9018950D
:10059200E0E6F8E0948195FFFDCF8093620808952C
:1005A20040E068ED80E590E00E94F00280E008956E
:1005B20040E068ED80E091E00E94F00280E0089562
:0A05C20088E291E40E94F801089518
:0A05CC008AE291E40E94F80108950C
:0A05D6000E94C90280E090E0089541
:0805E000FC0164BF4083089593
:0605E8000E948602FFCF15
:0405EE000C94000069
:0205F20008956A
:0205F400089568
:0205F600089566
:0205F800089564
:0205FA00089562
:0205FC00089560
:0E05FE000000000200000000EB020000000000
:02000004008278
:090000000000020000C00700002E
:00000001FF
