:100000000C9480000C948D060C9423060C948D06A1
:100010000C948D060C948D060C948D060C948D0614
:100020000C948D060C948D060C948D060C948D0604
:100030000C948D060C948D060C948D060C948D06F4
:100040000C948D060C947F040C94A8040C940E065A
:100050000C948D060C948D060C948D060C948D06D4
:100060000C948D060C948D060C948D060C948D06C4
:100070000C948D060C949A030C948D060C948D06AA
:100080000C948D060C948D060C948D060C944D04E6
:100090000C948D060C948D060C948D060C948D0694
:1000A000282428268028262828802828282A8028CE
:1000B0002A282C80282C282E80282E283080283092
:1000C0002832000D3228322834000D3428342835E7
:1000D00080283528368028362837802814281C8028
:1000E000283728388028382839802839283A802825
:1000F0001C28248028062814000D242800280680A7
:1001000011241FBECFEFCDBFDFE3DEBFE0EAF0E09A
:1001100041E017C0B591A59135912591059107FD55
:100120000CC095918591EF01F92FE82F05900D9264
:10013000A217B307D9F7FE0104C01D92A217B30797
:10014000E1F7E030F40731F70E9496050C94A8001F
:04015000F894FFCF51
:10015400436F756E7465722D636C6F636B7769732F
:100164006500436C6F636B77697365005445535442
:01017400008A
:10017600ABE0B0E0E1ECF0E00C94B1056C017B0182
:100186008A01FC0116821782838181FFCCC1CE01D0
:1001960001963C01F6019381F70193FD859193FF4A
:1001A60081917F01882309F4BAC1853239F493FD20
:1001B600859193FF81917F01853229F4B60190E004
:1001C6000E94DA03E7CF912C212C312CFFE1F315A5
:1001D600D8F08B3279F038F4803279F08332A1F49A
:1001E600232D20611DC08D3261F0803369F4232DEB
:1001F600216016C0832D8260382EE32DE4603E2EEA
:100206002AC0F32DF8601DC037FC2DC020ED280F45
:100216002A3040F08E32B9F436FC81C1232D206499
:10022600322E19C036FE06C08AE0989E200D112493
:10023600922E11C0EAE02E9E200D1124222EF32DBF
:10024600F0623F2E08C08C3621F4832D8068382E4C
:1002560002C0883641F4F70193FD859193FF8191A1
:100266007F018111B3CF982F9F7D9554933028F449
:100276000C5F1F4F9FE399830DC0833631F08337A0
:1002860071F0833509F059C021C0F8018081898356
:100296000E5F1F4F88248394912C530113C02801AD
:1002A600F2E04F0E511CF801A080B18036FE03C06B
:1002B600692D70E002C06FEF7FEFC5010E946506F1
:1002C6004C018201F32DFF773F2E16C0280122E054
:1002D600420E511CF801A080B18036FE03C0692D84
:1002E60070E002C06FEF7FEFC5010E945A064C0115
:1002F600F32DF0683F2E820133FC1BC0822D90E067
:1003060088169906B0F4B60180E290E00E94DA03FE
:100316002A94F4CFF50137FC859137FE81915F0170
:10032600B60190E00E94DA0321102A9421E0821A95
:1003360091088114910471F7E8C0843611F089366A
:1003460041F5F80137FE07C0608171818281938192
:100356000C5F1F4F08C060817181072E000C880B4F
:10036600990B0E5F1F4FF32DFF763F2E97FF09C0A7
:1003760090958095709561957F4F8F4F9F4FF06850
:100386003F2E2AE030E0A3010E943C03882E861807
:1003960045C0853731F4232D2F7EB22E2AE030E07A
:1003A60025C0932D997FB92E8F36C1F018F4883564
:1003B60079F0B5C0803719F0883721F0B0C0E92F41
:1003C600E061BE2EB4FE0DC0FB2DF460BF2E09C049
:1003D60034FE0AC0292F2660B22E06C028E030E07F
:1003E60005C020E130E002C020E132E0F801B7FEAE
:1003F60007C060817181828193810C5F1F4F06C0A7
:100406006081718180E090E00E5F1F4FA3010E9422
:100416003C03882E8618FB2DFF773F2E36FE0DC037
:10042600232D2E7FA22E891458F434FE0BC032FCE5
:1004360009C0832D8E7EA82E05C0B82CA32C03C020
:10044600B82C01C0B92CA4FE0FC0FE01E80DF11DA9
:100456008081803321F49A2D997EA92E09C0A2FEAF
:1004660006C0B394B39404C08A2D867809F0B39479
:10047600A3FC11C0A0FE06C0B21488F4280C922C6E
:100486009B180EC0B21460F4B60180E290E00E94A0
:10049600DA03B394F7CFB21418F42B1802C0982CD1
:1004A600212CA4FE10C0B60180E390E00E94DA037E
:1004B600A2FE17C0A1FC03C088E790E002C088E551
:1004C60090E0B6010CC08A2D867859F0A1FE02C0D4
:1004D6008BE201C080E2A7FC8DE2B60190E00E94AB
:1004E600DA03891438F4B60180E390E00E94DA0357
:1004F6009A94F7CF8A94F301E80DF11D8081B60135
:1005060090E00E94DA038110F5CF222009F442CE52
:10051600B60180E290E00E94DA032A94F6CFF60153
:100526008681978102C08FEF9FEF2B96E2E10C94B4
:02053600CA05F4
:100538000F931F93CF93DF930E94160440E054E07B
:1005480081E0FA01808320E234E0F901108280E43E
:1005580094E0FC011082C0E6D4E01882A0E8B4E080
:100568001C9200EA14E068E1F8016083FA01148241
:10057800F9011482FC0114821C8214961C921497AF
:10058800F8011482FA01108A118A128A138A148ACD
:10059800158A168A178AF901108A118A128A138A0B
:1005A800148A158A168A178AFC01108A118A128AF7
:1005B800138A148A158A168A178A188A198A1A8A2F
:1005C8001B8A1C8A1D8A1E8A1F8A83E050968C9378
:1005D800509751968C93519752961C9252975396D6
:1005E8001C92539754961C92549755961C92559763
:1005F80056961C92569757961C92F801108A118AA3
:10060800128A138A148A158A8BE0868B178AE0EE81
:10061800F5E011821082148215821382128285E815
:1006280096E080932E2890932F288AE195E0809376
:100638002C2890932D288FE896E080932A28909371
:100648002B2889E395E0809328289093292880E92E
:1006580096E0809326289093272881E996E0809356
:10066800242890932528DF91CF911F910F91089509
:10067800FA01AA27283051F1203181F1E8946F93CB
:100688006E7F6E5F7F4F8F4F9F4FAF4FB1E03ED071
:10069800B4E03CD0670F781F891F9A1FA11D680F0F
:1006A800791F8A1F911DA11D6A0F711D811D911D42
:1006B800A11D20D009F468943F912AE0269F1124B7
:1006C8003019305D3193DEF6CF010895462F47701B
:1006D800405D4193B3E00FD0C9F7F6CF462F4F7076
:1006E800405D4A3318F0495D31FD4052419302D0D4
:1006F800A9F7EACFB4E0A69597958795779567957A
:10070800BA95C9F700976105710508959B01AC0179
:100718000A2E06945795479537952795BA95C9F7A0
:0C072800620F731F841F951FA01D089511
:100734001F920F920FB60F9211242F933F934F9352
:100744005F936F937F938F939F93AF93BF93EF9335
:10075400FF93BE9B05C0E0912E28F0912F280995A8
:10076400BB9B05C0E0912A28F0912B280995BD9BDD
:1007740005C0E0912628F09127280995BC9B05C067
:10078400E0912428F091252809958FEF87BBFF91EC
:10079400EF91BF91AF919F918F917F916F915F91F5
:1007A4004F913F912F910F900FBE0F901F9018956E
:1007B4000F931F93CF93DF93FB01238121FD03C08C
:1007C4008FEF9FEF2CC022FF16C0468157812481F2
:1007D40035814217530744F4A081B1819D012F5FF5
:1007E4003F4F208331838C93268137812F5F3F4F86
:1007F4002683378314C08B01EC01FB010084F1854F
:10080400E02D0995892BE1F6D80116968D919C91DE
:100814001797019616968D939C931797CE01DF91A7
:08082400CF911F910F9108957F
:10082C00E0E9F4E0808188608193E83984E0F8079E
:10083C00C9F7E0EBF4E0808188608193E83B84E0C9
:10084C00F807C9F7E0E1F4E0808188608193E83132
:10085C0084E0F807C9F7E0E3F4E0808188608193D5
:10086C00E83384E0F807C9F7E0E5F4E080818860BC
:10087C008193E83584E0F807C9F7E0E7F4E080817C
:0E088C0088608193E83784E0F807C9F7089583
:10089A001F920F920FB60F9211242F933F934F93EB
:1008AA005F936F937F938F939F93AF93BF93EF93CE
:1008BA00FF93989B05C0E0912C28F0912D2809956B
:1008CA00999B05C0E0912828F091292809958FEF76
:1008DA0083BBFF91EF91BF91AF919F918F917F91D0
:1008EA006F915F914F913F912F910F900FBE0F9093
:0408FA001F9018959E
:1008FE001F920F920FB60F9211242F933F934F9387
:10090E005F936F937F938F939F93AF93BF93EF9369
:10091E00FF93E0913228F0913328309709F0099532
:10092E00FF91EF91BF91AF919F918F917F916F91B9
:10093E005F914F913F912F910F900FBE0F901F908F
:02094E001895FA
:100950001F920F920FB60F9211242F933F934F9334
:100960005F936F937F938F939F93AF93BF93EF9317
:10097000FF93E0913028F0913128309709F00995E4
:10098000FF91EF91BF91AF919F918F917F916F9167
:100990005F914F913F912F910F900FBE0F901F903D
:0209A0001895A8
:1009A20040E068ED88E790E00E94890640E068ED4B
:1009B2008CE790E00E94890640E068ED80E790E0D5
:1009C2000E94890641E168ED81E690E00E94890675
:1009D20040E068ED80E690E00E94890640E068ED24
:0C09E20082E690E00E94890680E0089503
:1009EE00E0E0F8E08DE695E08087918780ED8583E5
:1009FE0080EC868383E0878313861486168615869D
:100A0E0010923828109239281092372810923528D3
:100A1E00109236281092342886E098E280930228AD
:060A2E00909303280895D7
:100A3400919909C084E591E49F938F930E94F805EE
:100A44000F900F9008C086E691E49F938F930E94C5
:100A5400F8050F900F9082B392B3282F2170892F3D
:0E0A64008270822B880F880F880F85BB089543
:100A7200909909C086E691E49F938F930E94F805AE
:100A82000F900F9008C084E591E49F938F930E948A
:100A9200F8050F900F9082B392B3282F2170892FFF
:0E0AA2008270822B880F880F880F85BB089505
:100AB00080913428882389F0E0913528EF5FE77032
:100AC000E0933528F0E0EC5EF74D808180930208DA
:100AD000809134288150809334288091342881116A
:0E0AE00005C0E0E0F8E085818F7D85830895F4
:100AEE00209136282F5F2770909134289830E1F3AB
:100AFE00E22FF0E0EC5EF74D8083209336280FB6A0
:100B0E00F8940F92809134288F5F809334280F9041
:0E0B1E000FBEE0E0F8E08581806285830895D7
:100B2C000E9432060F2EF7EAEF2EF4E0FF2EF02D86
:100B3C0018E0C0E7D1E4F7011083DF93CF930E9454
:100B4C00F80585E196E1E5E081509040E040E1F761
:060B5C000F900F90F0CF96
:100B62002F923F924F925F926F927F928F929F92BB
:100B7200AF92BF92CF92DF92EF92FF920F931F93A9
:100B8200CF93DF93CDB7DEB7CA1BDB0BCDBFDEBF82
:020B92000994C4
:100B94002A88398848885F846E847D848C849B8409
:100BA400AA84B984C884DF80EE80FD800C811B8117
:100BB400AA81B981CE0FD11DCDBFDEBFED0108954D
:100BC40090910008E0913928EF5FE7708091382810
:100BD400E81759F0E0933928F0E0E45EF74D90838C
:0C0BE400809137288F5F80933728089598
:100BF000A0E0B0E0EEEFF5E00C94C105AE014B5F74
:100C00005F4FFA0161917191AF018091022890913B
:0C0C100003280E94BB00E2E00C94DA050F
:100C1C001F920F920FB60F9211248F93EF93FF93A5
:100C2C00E0E0F8E0848180648483FF91EF918F9100
:0A0C3C000F900FBE0F901F90189547
:100C46001F920F920FB60F9211248F9381E080931B
:0E0C56008A008F910F900FBE0F901F9018957F
:100C64000E949C020E944E060E9478060E94700612
:0E0C74000E94D1040E9441060E94F7040895D8
:100C820040E068ED80E191E00E948906E0E1F1E058
:0A0C920012821382789480E0089526
:100C9C0040E068ED80E890E00E948906E0E8F0E032
:080CAC001186108680E0089516
:100CB400FC010590615070400110D8F78095909523
:060CC4008E0F9F1F089532
:100CCA00FC016150704001900110D8F78095909511
:060CDA008E0F9F1F08951C
:100CE00040E068ED80E590E00E94890680E008958C
:100CF00040E068ED80E091E00E94890680E0089580
:0A0D00000E94770580E090E008955E
:080D0A0080E28093A704089524
:080D1200FC0164BF4083089559
:040D1A000C94000035
:020D1E00089536
:020D2000089534
:020D2200089532
:0E0D2400000000020000000080060000000039
:020D3200580562
:020D3400E205D6
:02000004008278
:090000000000020000C00700002E
:00000001FF
